:100000000C948A000C94B2000C94B2000C94B200D0
:100010000C94B2000C94B2000C94B2000C94B20098
:100020000C94B2000C94B2000C94B2000C947105C4
:100030000C94B2000C94B2000C94B2000C94B20078
:100040000C94F00F0C94B2000C94B70B0C94FE0BB4
:100050000C94B2000C94B2000C94B2000C94B20058
:100060000C9493010C94B200084AD73B3BCE016E2E
:1000700084BCBFFDC12F3D6C74319ABD56833DDAFF
:100080003D00C77F11BED9E4BB4C3E916BAAAABE0E
:10009000000000803F05A84CCDB2D44EB93836A937
:1000A000020C50B9918688083CA6AAAA2ABE000074
:1000B00000803F00000000240027002A000000000C
:1000C00000250028002B0000000000230026002946
:1000D00000040404040404040402020202020203F1
:1000E00003030303030102040810204080010204FB
:1000F000081020010204081020000000070002017F
:1001000000000304060000000000000000007C0363
:10011000E006640D11241FBECFEFD8E0DEBFCDBFD7
:1001200011E0A0E0B1E0E0E6FAE202C005900D9235
:10013000AA3BB107D9F713E0AAEBB1E001C01D92C9
:10014000AC37B107E1F711E0C4E1D1E004C0229778
:10015000FE010E942A15CE30D107C9F70E94E10F97
:100160000C942E150C940000880F8093BA0008950B
:10017000382F413210F040E042C08091BA0188230C
:10018000E1F791E09093BA012093BC018FEF809347
:1001900027021092E20141504093E3014F5F909398
:1001A000BB018091BB01330F832B8093BB018091F6
:1001B000BD01813041F41092BD018091BB0180935B
:1001C000BB0085EC01C085EE8093BC008091BA0134
:1001D0008130E1F38091E201841710F44091E20153
:1001E00020E030E00AC0FB01E20FF31FD901AE535B
:1001F000BE4F8C9180832F5F3F4F2417A0F3842F35
:1002000008950F931F93582F122F413210F081E061
:100210004AC08091BA018823E1F782E08093BA0155
:100220000093BC018FEF809327021092E20140936C
:10023000E301A2ECB1E0FB0102C081918D938E2F0E
:10024000861B8417D0F31092BB018091BB01550F20
:10025000852B8093BB018091BD01813041F41092C8
:10026000BD018091BB018093BB0085EC01C085EE90
:100270008093BC00112321F08091BA018230E1F318
:10028000809127028F3F11F480E00DC080912702FA
:10029000803211F482E007C080912702803311F090
:1002A00084E001C083E01F910F910895482F6132CF
:1002B00010F081E008958091BA01843011F082E05D
:1002C000089560930502A4EEB1E0842F9C01F9012A
:1002D00002C081918D938E2F841B8617D0F380E00E
:1002E00008959093C1018093C00108959093BF0138
:1002F0008093BE010895882311F085EC01C085E844
:100300008093BC00089585ED8093BC008091BC0073
:1003100084FDFCCF1092BA01089585EC8093BC0057
:100320001092BA0108951F920F920FB60F921124E6
:100330002F933F934F935F936F937F938F939F93ED
:10034000AF93BF93EF93FF938091B90090E0887FC4
:1003500090708036910509F4F2C081369105CCF594
:100360008832910509F47BC089329105B4F480315B
:10037000910509F46FC0813191053CF4009709F4AF
:1003800047C1089709F04FC165C08831910509F44C
:1003900066C0809709F047C182C08034910509F496
:1003A000A4C08134910544F48033910509F482C0DE
:1003B000C89709F038C189C08035910509F489C012
:1003C0008835910509F496C08834910509F02BC150
:1003D000AEC08839910509F413C189399105ECF44F
:1003E0008837910509F4ABC0893791054CF48836FC
:1003F000910509F4A4C08037910509F014C19FC08C
:100400008838910509F4FCC08039910509F49DC034
:100410008038910509F007C198C0803B910509F427
:10042000C6C0813B91054CF4803A910509F49FC008
:10043000883A910509F0F7C0BAC0803C910509F4EB
:10044000E3C0883C910509F4DFC0883B910509F0C1
:10045000EAC0C2C08091BB018093BB00CFC0909125
:10046000E2018091E301981768F49091E201E92F8D
:10047000F0E0EE53FE4F80818093BB009F5F90932E
:10048000E201BCC08091BC01882309F44BC085ED1A
:100490008093BC008091BC0084FDFCCFC2C080E290
:1004A0008093270285ED8093BC008091BC0084FD81
:1004B000FCCFB7C080E38093270285ED8093BC001A
:1004C0008091BC0084FDFCCFACC088E38093270200
:1004D0009BC08091E2019091BB00E82FF0E0EE53C9
:1004E000FE4F90838F5F8093E2019091E2018091B3
:1004F000E30182C08091E2019091BB00E82FF0E01F
:10050000EE53FE4F90838F5F8093E2018091BC0198
:10051000882341F085ED8093BC008091BC0084FD70
:10052000FCCF7FC081E08093BD0184EA6EC085ED81
:100530008093BC008091BC0084FDFCCF72C083E03E
:100540008093BA011092260259C08091260280320F
:1005500008F056C0809126029091BB00E82FF0E091
:10056000EA5FFD4F90838F5F8093260247C08091A2
:100570002602803230F4E0912602F0E0EA5FFD4F7F
:10058000108285ED8093BC008091BC0084FDFCCF7F
:100590001092BA0160912602E091C001F091C10170
:1005A00086E092E070E00995109226022DC084E06A
:1005B0008093BA011092040210920502E091BE01EC
:1005C000F091BF01099580910502882329F481E00B
:1005D000809305021092E40190910402E92FF0E06B
:1005E000EC51FE4F80818093BB009F5F909304028B
:1005F0009091040280910502981710F485EC01C0D7
:1006000085E88093BC000FC085EC8093BC0009C0D6
:100610001092270285ED8093BC008091BC0084FD80
:10062000FCCF1092BA01FF91EF91BF91AF919F91D2
:100630008F917F916F915F914F913F912F910F908B
:100640000FBE0F901F9018951092BA0181E0809311
:10065000BC011092BD0182E161E00E942D1183E195
:1006600061E00E942D11E9EBF0E080818E7F8083B4
:1006700080818D7F808388E48093B80085E48093B7
:10068000BC00089581E080936D0260934A0210924D
:100690006B0210926C0208952091490230E0809123
:1006A0004802281B3109C9010895409148028091F0
:1006B0004902481718F02FEF3FEF0AC0E42FF0E08F
:1006C000E85DFD4F8081282F30E04F5F4093480266
:1006D000C9010895E091480280914902E81718F095
:1006E000EFEFFFEF06C0F0E0E85DFD4F8081E82FFF
:1006F000F0E0CF01089508951092710210927002F7
:1007000088EE93E0A0E0B0E08093720290937302D1
:10071000A0937402B09375028EE991E090936F02FA
:1007200080936E020895CF92DF92EF92FF920F9323
:100730001F93CF93DF937C016B018A0180916D023F
:100740008823A1F0C0E0D0E00DC0D701ED91FC916D
:10075000D601AC0FBD1F0190F081E02DC7016C9157
:1007600009952196C017D10780F304C0CB01642FEF
:100770000E945601C801DF91CF911F910F91FF9008
:10078000EF90DF90CF900895DF93CF930F92CDB786
:10079000DEB7698380916D028823A9F080916C0295
:1007A000803218F020E030E015C080916B02E82F15
:1007B000F0E0E55BFD4F998190838F5F80936B0242
:1007C00080936C0205C0CE01019661E00E94560143
:1007D00021E030E0C9010F90CF91DF9108950F9390
:1007E000062F80914A026BE472E040916C0221E096
:1007F0000E94010110926B0210926C0210926D0225
:100800000F91089561E00E94EF030895413208F0CE
:1008100040E2862F68E272E00E94B800109248021F
:1008200080934902089521E00E94060408951092E1
:1008300048021092490210926B0210926C020E94C0
:1008400024030895FC0180917A028C3090F4808317
:100850008F5F80937A02815090E0FC01EE0FFF1FC2
:10086000E80FF91FE558FD4F88EB9BE092838183E9
:1008700008958FEF80830895FC0120812C3008F0CB
:1008800041C08181992787FD909548E850E0481B39
:10089000590B440F551F440F551F6417750784F0FB
:1008A0008281992787FD909548E552E0481B590BB6
:1008B000440F551F440F551F641775070CF4AB0107
:1008C00042505040CA01AA2797FDA095BA2F74E064
:1008D000880F991FAA1FBB1F7A95D1F763E0B695C1
:1008E000A795979587956A95D1F74FB7F89430E01B
:1008F000F901EE0FFF1FE20FF31FE558FD4F928342
:1009000081834FBF0895AF92BF92CF92DF92EF9253
:10091000FF920F931F93CF93DF93EC019B0182E033
:10092000603278070CF048C077FF03C020E030E069
:1009300005C0653B710514F024EB30E000D000D019
:10094000B901882777FD8095982F2981332727FDC6
:100950003095E8E8AE2EB12CA21AB30AAA0CBB1C43
:10096000AA0CBB1CCC24B7FCC094DC2CEA81FF276A
:10097000E7FDF09528E532E02E1B3F0B220F331FD9
:10098000220F331F442737FD4095542FEDB7FEB794
:10099000218332834383548320E030E040E050E001
:1009A00004EBE02EF12C012D112D0E94980F9B01DC
:1009B0000F900F900F900F90CE01B9010E943C0450
:1009C000DF91CF911F910F91FF90EF90DF90CF902B
:1009D000BF90AF900895CF92DF92EF92FF921F9356
:1009E000CF93DF93EC01162F7A01690188818C3057
:1009F00008F064C0862F61E00E94EE10888190E0CC
:100A0000FC01EE0FFF1FE80FF91FE558FD4F1F73A4
:100A10008081807C812B808380E292E08E199F0907
:100A200064E070E00E94C414698380E699E08C1948
:100A30009D0964E070E00E94C4146A83A8818A2F33
:100A40006CE00E94B814682F70E0AB01440F551F92
:100A5000460F571F440F551F440F551F20E030E02D
:100A6000C901840F951FFC01EE0FFF1FE80FF91F4E
:100A7000E558FD4F808186FD15C02F5F3F4F2C301C
:100A8000310571F724C01092800082E080938100CC
:100A90001092850010928400B19A80916F0082605C
:100AA00080936F008A2F90E0FC01EE0FFF1FE80F8C
:100AB000F91FE558FD4F8081806480838881DF9134
:100AC000CF911F91FF90EF90DF90CF900895672B0B
:100AD000D1F2E8CF40E252E020E639E00E94EB0498
:100AE00008951F920F920FB60F9211242F933F93E8
:100AF0004F935F936F937F938F939F93AF93BF9326
:100B0000EF93FF9380919F0287FF05C010928500AD
:100B1000109284002BC020919F02332727FD30952F
:100B200080917A0290E02817390704F580919F029E
:100B3000992787FD9095FC01EE0FFF1FE80FF91F25
:100B4000E558FD4F808186FF11C080919F02992753
:100B500087FD9095FC01EE0FFF1FE80FF91FE55888
:100B6000FD4F80818F7360E00E942D1180919F0264
:100B70008F5F80939F0220919F02332727FD30953E
:100B800080917A0290E0281739070CF04EC08091CE
:100B90009F028C300CF049C0209184003091850078
:100BA00080919F02992787FD9095FC01EE0FFF1F12
:100BB000E80FF91FE558FD4F81819281280F391FF9
:100BC000309389002093880080919F02992787FDA8
:100BD0009095FC01EE0FFF1FE80FF91FE558FD4F40
:100BE000808186FF2BC080919F02992787FD909579
:100BF000FC01EE0FFF1FE80FF91FE558FD4F808144
:100C00008F7361E00E942D1119C080E49CE905C03A
:100C10008091840090918500049690938900809340
:100C200088008FEF80939F0209C08091840090918B
:100C30008500049680549C4940F3EACFFF91EF91E0
:100C4000BF91AF919F918F917F916F915F914F91E4
:100C50003F912F910F900FBE0F901F9018954F92BC
:100C60005F926F927F928F929F92AF92BF92CF923C
:100C7000DF92EF92FF920F931F93CF93DF93C09178
:100C8000A402D091A502FE01EE0FFF1FEE0FFF1F81
:100C900056EA452E52E0552E4E0E5F1EE255FD4F90
:100CA000D2016D917D918D919C9120813181428104
:100CB00053810E9481115B016C0180907A019090B8
:100CC0007B01F401EE0FFF1FEE0FFF1F36EA632ECC
:100CD00032E0732E6E0E7F1EE255FD4FD3016D91F3
:100CE0007D918D919C9120813181428153810E941F
:100CF00081117B018C01C601B501A60195010E94FD
:100D00000C145B016C01C801B701A80197010E9496
:100D10000C149B01AC01C601B5010E948211209107
:100D20007C0130917D0140917E0150917F010E94B4
:100D300048128823A4F58091A0029091A1026091AD
:100D400078017091790101960E94C414FC0190937E
:100D5000A1028093A002EE0FFF1FCE0FDF1FCC0F6A
:100D6000DD1FCC0FDD1FC85ADE4F88819981AA8113
:100D7000BB81E20188839983AA83BB83E80DF91DB7
:100D8000EE0FFF1FEE0FFF1FE85AFE4F808191818B
:100D9000A281B381F30180839183A283B383DF9126
:100DA000CF911F910F91FF90EF90DF90CF90BF9068
:100DB000AF909F908F907F906F905F904F9008952D
:100DC00086EB92E00E94220408952F923F924F9268
:100DD0005F926F927F928F929F92AF92BF92CF92CB
:100DE000DF92EF92FF920F931F936091BA0270917E
:100DF000BB028091BC029091BD0220E030E044E350
:100E000053E40E944F122AED3FE049E450E40E946F
:100E10000C147B018C01C8010E946F143B014C0132
:100E2000B701C8010E944C125B016C01E090800187
:100E3000F09081010091820110918301C401B301FE
:100E4000A80197010E940C143B014C0160918401A0
:100E500070918501882777FD8095982F0E94EA126E
:100E60001B012C01C601B501A80197010E940C14B9
:100E70006B017C0100917A0110917B01FEEAAF2E9B
:100E8000F2E0BF2E000F111F000F111F0A0D1B1DD6
:100E9000C401B301A20191010E940C149B01AC0199
:100EA000F80160817181828193810E948211F80131
:100EB00060837183828393830091A4021091A502C1
:100EC000000F111F000F111F0A0D1B1DC701B601D6
:100ED000A20191010E940C149B01AC01F8016081F8
:100EE0007181828193810E948211F80160837183F4
:100EF000828393831F910F91FF90EF90DF90CF90AB
:100F0000BF90AF909F908F907F906F905F904F9029
:100F10003F902F900895CF93DF93809190010E948E
:100F2000CC10EC01809198018823D1F0CF36D10507
:100F3000BCF08091BE029091BF02A091C002B0911E
:100F4000C1020196A11DB11D8093BE029093BF0204
:100F5000A093C002B093C102109298010E94E506CE
:100F6000809198018823D9F4C535D105C4F48091C6
:100F7000BE029091BF02A091C002B091C102019641
:100F8000A11DB11D8093BE029093BF02A093C00229
:100F9000B093C10281E0809398010E94E506DF9141
:100FA000CF910895AF92BF92CF92DF92EF92FF92CE
:100FB0000F931F93809192010E94CC107C0160914D
:100FC000A2027091A302882777FD8095982F0E9436
:100FD000EA1220E030E040EC50E40E940C1420E0E3
:100FE00030E040E251E40E944F125B016C010027A7
:100FF000F7FC0095102FC801B7010E94EA1220E00B
:1010000030E040E850E40E940C1420E030E040E280
:1010100051E40E944F129B01AC01C601B5010E9430
:1010200082110E94B7129B01AC016093A20230931F
:10103000A302CB011F910F91FF90EF90DF90CF9013
:10104000BF90AF900895CF92DF92EF92FF920F93EF
:101050001F9304E513E0C80160E071E00E94E40E14
:101060000E94D207BC01C8014AE050E00E94C50EB0
:10107000C80167E071E00E94E40E4091BA0250910D
:10108000BB026091BC027091BD02C80122E030E059
:101090000E94820FC80169E171E00E94E40E409154
:1010A000C2025091C3026091C4027091C502C8018E
:1010B00022E030E00E94820FC8010E94DE0DC801CC
:1010C0000E94DE0DC8016FE271E00E94E40EE09123
:1010D000A402F091A5025EEAE52E52E0F52EEE0F95
:1010E000FF1FEE0FFF1FEE0DFF1D4081518162813A
:1010F0007381C80122E030E00E94820F31E4C32EE8
:1011000031E0D32EC801B6010E94E40E80917A012D
:1011100090917B01880F991F880F991FE80EF91E87
:10112000F7014081518162817381C80122E030E082
:101130000E94820FC8010E94DE0DC80164E471E0C4
:101140000E94E40EE091A402F091A50286EAE82E46
:1011500082E0F82EEE0FFF1FEE0FFF1FEE0DFF1DBA
:101160004081518162817381C80122E030E00E9498
:10117000820FC801B6010E94E40E80917A0190911D
:101180007B01880F991F880F991FE80EF91EF70140
:101190004081518162817381C80122E030E00E9468
:1011A000820FC8010E94DE0DC8010E94DE0D1F9152
:1011B0000F91FF90EF90DF90CF9008958091940170
:1011C00060E00E942D118091960160E00E942D1137
:1011D00008958091960161E00E942D118FEF9FEF9D
:1011E000909385018093840108958091940161E03A
:1011F0000E942D1181E090E09093850180938401FD
:10120000089590E08091B902882309F491E09093C9
:10121000B902992321F080918C0161E003C0809193
:101220008C0160E00E942D110895609186017091FB
:1012300087012091880130918901680F791F261755
:1012400037070CF4B90180918A0190918B016817DE
:1012500079070CF4BC0186EB92E00E9483040895A8
:10126000CF92DF92EF92FF920F931F93C090A40250
:10127000D090A502E0917A01F0917B01EE0FFF1F63
:10128000EE0FFF1FDF01A255BD4FEA55FD4F6081F4
:101290007181828193812D913D914D915C910E944C
:1012A00081117B018C0117FB109517F91095CC0C5F
:1012B000DD1CCC0CDD1CF601E255FD4F86EA92E008
:1012C000C80ED91ED6016D917D918D919C91208182
:1012D0003181428153810E9481119B01AC01C8017F
:1012E000B7010E94F51122EE3EE245E652EC0E9463
:1012F0000C146093C2027093C3028093C402909353
:10130000C5022091BA023091BB024091BC025091BB
:10131000BD020E9481117B018C016093C602709313
:10132000C7028093C8029093C90220E030E044E3F2
:1013300053E40E940114181684F4C801B70120E098
:1013400030E044EB53E40E9481116093C602709335
:10135000C7028093C8029093C902E090C602F09041
:10136000C7020091C8021091C902C801B70120E06C
:1013700030E044E353EC0E944812882384F4C8010F
:10138000B70120E030E044EB53E40E948211609307
:10139000C6027093C7028093C8029093C9028091DD
:1013A000A2029091A3028233910524F562E370E0DA
:1013B000681B790B882777FD8095982F0E94EA1289
:1013C00020E030E040E05FEB0E940C149B01AC0198
:1013D0006091C6027091C7028091C8029091C902C3
:1013E0000E9482116093C6027093C7028093C80264
:1013F0009093C9026091C6027091C7028091C802A1
:101400009091C90220E030E040E05FE30E940C14BC
:101410000E94B712DC01CB010E9415091F910F91A8
:10142000FF90EF90DF90CF900895EF92FF920F938F
:101430001F930E94D207AA2797FDA095BA2FBC013F
:10144000CD010E94EA127B018C0184E593E060E00B
:1014500071E00E94E40E84E593E0B801A70122E068
:1014600030E00E94850FC801B70120E030E040EA7B
:1014700051E40E94481288234CF50E94DE0868EE71
:1014800073E080E090E00E9438100E94E9086091CB
:10149000C6027091C7028091C8029091C90290580B
:1014A0000E94B712DC01CB010E94150968EC70E0C4
:1014B00080E090E00E9438100E94DE0868EC70E046
:1014C00080E090E00E9438100E94F5081F910F9173
:1014D000FF90EF900895BF92CF92DF92EF92FF922C
:1014E0000F931F938EE692E06EE170E00E9442033C
:1014F0008EE692E063E00E94C4038EE692E00E94D2
:1015000002048EE692E06EE170E046E050E00E9458
:1015100013048EE692E00E944C0307972CF0E0E063
:1015200070E080E060E043C08EE692E00E945503E8
:10153000F82E8EE692E00E9455038C018EE692E032
:101540000E9455038EE692E00E9455038EE692E0DB
:101550000E945503B82E8EE692E00E9455036C015E
:101560007F2D60E0602B712B709561957F4F8827F0
:1015700077FD8095982F0E94EA127B018C017B2DCC
:1015800060E06C297D29882777FD8095982F0E943F
:10159000EA129B01AC01C801B7010E94F51122EECD
:1015A0003EE245E652E40E940C14E62F692F2E2FEE
:1015B000372F482F562FB901CA011F910F91FF9065
:1015C000EF90DF90CF90BF9008950E9401090E9494
:1015D0006B0A6093BA027093BB028093BC02909333
:1015E000BD020E948B078091CA029091CB020196A6
:1015F0009093CB028093CA02019764EF71E00E943E
:10160000C414892B11F40E9423080E9430090E94FF
:101610002F060E94150A8091BE029091BF02A091F0
:10162000C002B091C102855F9140A040B04014F467
:101630000E94F50808950F931F9368EE73E080E011
:1016400090E00E94381084E593E040E855E260E0C5
:1016500070E00E94390C80918C0161E00E94EE10D4
:1016600080E090E00E9415098091940161E00E9461
:10167000EE108091960161E00E94EE1080918E0143
:1016800061E00E94EE108091900160E00E94EE10F7
:101690008091920160E00E94EE1068EE73E080E0BD
:1016A00090E00E9438100EE612E0C8010E94170474
:1016B000C8016EE170E00E944203C80162E00E942E
:1016C000C403C80160E00E94C403C8010E94020470
:1016D00060918E0170918F0186EB92E00E946A0505
:1016E0002091A0023091A102E091A402F091A50204
:1016F00006EA12E0AF01440F551F440F551F400F7B
:10170000511F220F331FE20FF31F68E571E0EE0F48
:10171000FF1FEE0FFF1FE60FF71F80819181A2814F
:10172000B381FA0180839183A283B38340917A01CC
:1017300050917B01CA01880F991F880F991F080FCC
:10174000191F240F351F220F331F220F331F620F63
:10175000731FFB0180819181A281B381F801808395
:101760009183A283B3831F910F91089508951F92CF
:101770000F920FB60F9211242F933F934F938F9395
:101780009F93EF93FF934091C60020910C033091FB
:101790000D032F5F3F4F2F73307080910E03909198
:1017A0000F032817390759F0E0910C03F0910D034E
:1017B000E453FD4F408330930D0320930C03FF91BE
:1017C000EF919F918F914F913F912F910F900FBE6D
:1017D0000F901F901895E0916003F0916103E05C19
:1017E000FF4F8191919120813181821B930B8F73E7
:1017F0009070892B11F00E94B60B08951F920F92E2
:101800000FB60F9211242F933F938F939F93EF93D3
:10181000FF93209150033091510380915203909196
:1018200053032817390731F48091C1008F7D8093CD
:10183000C10014C0E0915203F0915303E05FFC4FEC
:101840002081809152039091530301968F73907081
:1018500090935303809352032093C600FF91EF911E
:101860009F918F913F912F910F900FBE0F901F90DE
:101870001895AF92BF92DF92EF92FF920F931F9352
:10188000CF93DF93EC017A018B01DD24403081EEB0
:10189000580780E0680780E0780711F0DD24D394D2
:1018A00091E0A92EB12CEC89FD89DD2069F0C501FC
:1018B0000E8C02C0880F991F0A94E2F7808360E0C3
:1018C00079E08DE390E005C0108260E874E88EE175
:1018D00090E0A80197010E94D71421503040404069
:1018E0005040569547953795279580E12030380729
:1018F00020F0DD2011F0DD24D6CFE889F98930838E
:10190000EA89FB892083EE89FF89408121E030E06C
:10191000C9010A8C02C0880F991F0A94E2F7482B6C
:101920004083EE89FF894081C9010B8C02C0880F7A
:10193000991F0A94E2F7482B4083EE89FF89408182
:10194000C9010C8C02C0880F991F0A94E2F7482B3A
:101950004083EE89FF8980810D8C02C0220F331FE6
:101960000A94E2F7209528232083DF91CF911F91DD
:101970000F91FF90EF90DF90BF90AF900895DC0142
:101980001C96ED91FC911D97E05CFF4F21913191E8
:1019900080819181281B390B2F733070C901089504
:1019A000DC011C96ED91FC911D97E05CFF4F2081BE
:1019B0003181E054F040DF01AE5BBF4F8D919C91CF
:1019C00011972817390719F42FEF3FEF07C08D91B2
:1019D0009C91E80FF91F8081282F30E0C9010895FC
:1019E000DC011C96ED91FC911D97E05CFF4F20817E
:1019F0003181E054F040DF01AE5BBF4F8D919C918F
:101A000011972817390719F42FEF3FEF10C08D9168
:101A10009C911197E80FF91F20818D919C9111974E
:101A200001968F73907011969C938E9330E0C9014C
:101A30000895FC0186859785DC01A05CBF4FFC0101
:101A4000EE5BFF4F2D913C9111978081918128177A
:101A50003907C1F70895CF93DF93EC01EE85FF8539
:101A6000E05CFF4F20813181E054F0402F5F3F4F19
:101A70002F733070DF01AE5BBF4F8D919C9111973A
:101A800028173907D1F3E05CFF4F80819181E05442
:101A9000F040E80FF91F6083EE85FF85E05CFF4FA3
:101AA00031832083EE89FF89208181E090E00D8CD5
:101AB00002C0880F991F0A94E2F7282B208381E047
:101AC00090E0DF91CF910895109257031092560342
:101AD00088EE93E0A0E0B0E0809358039093590320
:101AE000A0935A03B0935B038EEA91E09093550361
:101AF000809354038CEC92E0909361038093600395
:101B000080E193E0909363038093620385EC90E01F
:101B1000909365038093640384EC90E09093670353
:101B20008093660380EC90E0909369038093680350
:101B300081EC90E090936B0380936A0386EC90E0D5
:101B400090936D0380936C0384E080936E0383E035
:101B500080936F0387E08093700385E08093710327
:101B600081E0809372030895CF92DF92EF92FF920B
:101B70000F931F93CF93DF937C016B018A01C0E029
:101B8000D0E00FC0D6016D916D01D701ED91FC91B0
:101B90000190F081E02DC7010995C80FD91F0150B0
:101BA00010400115110571F7CE01DF91CF911F9102
:101BB0000F91FF90EF90DF90CF900895EF92FF92FA
:101BC0000F931F938C01DC01ED91FC910190F0814A
:101BD000E02D6DE009957C01D801ED91FC9101901B
:101BE000F081E02DC8016AE009959C012E0D3F1D92
:101BF000C9011F910F91FF90EF900895CF93DF934C
:101C0000DB010D900020E9F71197A61BB70BEC0143
:101C1000E881F9810280F381E02DAD010995DF9122
:101C2000CF9108954F925F927F928F929F92AF9241
:101C3000BF92CF92DF92EF92FF920F931F93DF93A9
:101C4000CF93CDB7DEB7A1970FB6F894DEBF0FBE26
:101C5000CDBF2C01742ECB01223008F42AE019A24A
:101C600031E2C32ED12CCC0EDD1E822E9924AA2463
:101C7000BB24672D752FA50194010E94D71479010B
:101C80008A01C801B701A50194010E949914472D4A
:101C9000461B0894C108D1084A3014F4405D01C0C5
:101CA000495CF6014083E114F1040105110521F0BE
:101CB0007E2C5F2DC801DDCFC201B6010E94FE0D52
:101CC000A1960FB6F894DEBF0FBECDBFCF91DF91C6
:101CD0001F910F91FF90EF90DF90CF90BF90AF904A
:101CE0009F908F907F905F904F900895DC01211519
:101CF000310541F4ED91FC910190F081E02D642FCC
:101D0000099508950E94120E0895CF92DF92EF92E6
:101D1000FF920F931F93CF93DF93EC016A017B0136
:101D20002115310541F4E881F9810190F081E02D20
:101D3000642F09951FC02A303105D1F477FF17C0F1
:101D4000E881F9810190F081E02D6DE209958C0127
:101D500044275527BA014C195D096E097F09CE0148
:101D60002AE00E94120E9801280F391F04C02AE0B1
:101D70000E94120E9C01C901DF91CF911F910F911A
:101D8000FF90EF90DF90CF900895CF92DF92EF9287
:101D9000FF920F931F936C017B019A010027F7FCC0
:101DA0000095102FB801A7010E94850E8C01C60175
:101DB0000E94DE0D080F191FC8011F910F91FF909F
:101DC000EF90DF90CF9008950E94FE0D08957F92CE
:101DD0008F929F92AF92BF92CF92DF92EF92FF923B
:101DE0000F931F93CF93DF934C017A018B01722ED7
:101DF000CB01BA0120E030E040E050E00E94481200
:101E000087FD03C0C0E0D0E00EC0D401ED91FC918D
:101E10000190F081E02DC4016DE20995EC0117FB02
:101E2000109517F9109520E030E040E05FE3AA2418
:101E30000BC0CA01B90120E030E040E251E40E9449
:101E40004F129B01AC01A394A71498F3C801B701EA
:101E50000E9482115B016C010E94BC127B018C010B
:101E6000C401B801A7012AE030E00E94760EC80F35
:101E7000D91F772039F0C40166E571E00E94FE0D9C
:101E8000C80FD91FC801B7010E94E8129B01AC011D
:101E9000C601B5010E94811124C020E030E040E27B
:101EA00051E40E940C147B018C010E94B7125B016B
:101EB0006C01CC24B7FCC094DC2CC401B601A50194
:101EC0002AE030E00E94850EC80FD91FC601B50177
:101ED0000E94EA129B01AC01C801B7010E94811166
:101EE0007A947720D1F6CE01DF91CF911F910F9197
:101EF000FF90EF90DF90CF90BF90AF909F908F902A
:101F00007F9008950E94E70E0895EF92FF920F933D
:101F10001F937C010E94E70E8C01C7010E94DE0D19
:101F2000080F191FC8011F910F91FF90EF9008959E
:101F30002F923F924F925F926F927F928F929F92D9
:101F4000AF92BF92CF92DF92EF92FF920F931F93C7
:101F5000DF93CF93CDB7DEB73B014C0119012A01C6
:101F60006D897E898F89988D6A197B098C099D09F5
:101F7000621A730A840A950AA40193010E949914B3
:101F8000E218F30804091509A80197010E94F91441
:101F90002A0D3B1D4C1D5D1DB901CA01CF91DF917A
:101FA0001F910F91FF90EF90DF90CF90BF90AF9077
:101FB0009F908F907F906F905F904F903F902F9069
:101FC0000895CF93DF930E9491100E941B0BCBEEDC
:101FD000DBE00E94E50A2097E1F30E94EB0BF9CFCA
:101FE0001F920F920FB60F9211242F933F938F934E
:101FF0009F93AF93BF938091770390917803A091C3
:102000007903B0917A0330917B030196A11DB11D34
:10201000232F2D5F2D3720F02D570196A11DB11DC7
:1020200020937B038093770390937803A0937903A5
:10203000B0937A038091730390917403A091750318
:10204000B09176030196A11DB11D80937303909307
:102050007403A0937503B0937603BF91AF919F91E2
:102060008F913F912F910F900FBE0F901F90189559
:102070009B01AC017FB7F894809173039091740336
:10208000A0917503B091760366B5A89B05C06F3F1C
:1020900019F00196A11DB11D7FBFBA2FA92F982F4E
:1020A0008827860F911DA11DB11D62E0880F991F21
:1020B000AA1FBB1F6A95D1F7BC012DC0FFB7F894CA
:1020C0008091730390917403A0917503B09176038E
:1020D000E6B5A89B05C0EF3F19F00196A11DB11D03
:1020E000FFBFBA2FA92F982F88278E0F911DA11DF2
:1020F000B11DE2E0880F991FAA1FBB1FEA95D1F717
:10210000861B970B885E9340C8F2215030404040B8
:10211000504068517C4F211531054105510571F63C
:102120000895789484B5826084BD84B5816084BD4F
:1021300085B5826085BD85B5816085BDEEE6F0E040
:10214000808181608083E1E8F0E01082808182609C
:102150008083808181608083E0E8F0E0808181601D
:102160008083E1EBF0E0808184608083E0EBF0E04D
:10217000808181608083EAE7F0E0808184608083F1
:10218000808182608083808181608083808180689B
:1021900080831092C1000895982F8E3008F09E50D1
:1021A0009770809199018295880F880F807C892B88
:1021B00080937C0080917A00806480937A00809183
:1021C0007A0086FDFCCF2091780040917900942F11
:1021D00080E030E0282B392BC9010895CF93DF939D
:1021E000482F50E0CA018B519F4FFC0134914F5250
:1021F0005F4FFA018491882369F190E0880F991F5D
:10220000FC01ED54FF4FA591B491FC01E354FF4F45
:10221000C591D491662351F42FB7F8948C91932FE4
:10222000909589238C93888189230BC0623061F457
:102230002FB7F8948C91932F909589238C93888154
:10224000832B88832FBF06C09FB7F8948C91832B74
:102250008C939FBFDF91CF910895482F50E0CA0122
:1022600087509F4FFC012491CA018B519F4FFC0165
:1022700094914F525F4FFA013491332309F440C0D7
:10228000222351F1233071F0243028F42130A1F0C1
:10229000223011F514C02630B1F02730C1F02430BF
:1022A000D9F404C0809180008F7703C080918000B2
:1022B0008F7D8093800010C084B58F7702C084B575
:1022C0008F7D84BD09C08091B0008F7703C080915D
:1022D000B0008F7D8093B000E32FF0E0EE0FFF1F82
:1022E000E354FF4FA591B4912FB7F894662321F4DE
:1022F0008C919095892302C08C91892B8C932FBF50
:1023000008955058BB27AA270ED030C2F0D130F024
:10231000F5D120F031F49F3F11F41EF4C0C10EF44A
:10232000E095E7FBB6C1E92F43D280F3BA17620705
:1023300073078407950718F071F49EF55BC20EF4DD
:10234000E0950B2EBA2FA02D0B01B90190010C01C5
:10235000CA01A0011124FF27591B99F0593F50F4DD
:10236000503E68F11A16F040A22F232F342F442735
:10237000585FF3CF469537952795A795F04053952D
:10238000C9F77EF41F16BA0B620B730B840BBAF0FD
:102390009150A1F0FF0FBB1F661F771F881FC2F768
:1023A0000EC0BA0F621F731F841F48F4879577957C
:1023B0006795B795F7959E3F08F0B3CF9395880F33
:1023C00008F09927EE0F97958795089590D158F0CA
:1023D00080E891E009F49EEF91D128F040E851E0C7
:1023E00059F45EEF09C05BC105C2E92FE078E0D186
:1023F00068F3092E052AC1F326173707480759073E
:1024000038F00E2E07F8E02569F0E025E0640AC0F8
:10241000EF6307F8009407FADB01B9019D01DC01C5
:10242000CA01AD01EF934AD0A1D10AD05F915523E3
:1024300031F02BED3FE049E450FD49EC63CF0895C6
:10244000DF93DD27B92FBF7740E85FE31616170645
:1024500048075B0710F4D92FD8D19F938F937F93B0
:102460006F9343D2E8E6F0E01DD180D12F913F91E8
:102470004F915F91DDD1DD2349F09058A2EA2AED1A
:102480003FE049EC5FE3D0785D274DDFDF916EC11F
:10249000DCD008F481E0089539D1E39578C10CD0FF
:1024A00065C12CD140F023D130F021F45F3F19F009
:1024B000F0C05111A0C1F3C07BD198F39923C9F3A7
:1024C0005523B1F3951B550BBB27AA27621773073A
:1024D000840738F09F5F5F4F220F331F441FAA1FEE
:1024E000A9F333D00E2E3AF0E0E830D091505040AE
:1024F000E695001CCAF729D0FE2F27D0660F771F5C
:10250000881FBB1F261737074807AB07B0E809F03D
:10251000BB0B802DBF01FF2793585F4F2AF09E3FD2
:10252000510568F0B6C067C15F3FECF3983EDCF33D
:10253000869577956795B795F7959F5FC9F7880F4B
:10254000911D9695879597F90895E1E0660F771F9D
:10255000881FBB1F621773078407BA0720F0621B2E
:10256000730B840BBA0BEE1F88F7E095089504D027
:102570006894B11140C1089523D188F09F5790F01D
:10258000B92F9927B751A0F0D1F0660F771F881F98
:10259000991F1AF0BA95C9F712C0B13081F02AD14B
:1025A000B1E0089527C1672F782F8827B85F39F0E9
:1025B000B93FCCF3869577956795B395D9F73EF4F7
:1025C00090958095709561957F4F8F4F9F4F08959F
:1025D000E89409C097FB3EF49095809570956195BD
:1025E0007F4F8F4F9F4F9923A9F0F92F96E9BB2773
:1025F0009395F695879577956795B795F111F8CFEF
:10260000FAF4BB0F11F460FF1BC06F5F7F4F8F4F59
:102610009F4F16C0882311F096E911C0772321F04F
:102620009EE8872F762F05C0662371F096E8862FE7
:1026300070E060E02AF09A95660F771F881FDAF73E
:10264000880F9695879597F90895990F0008550F6B
:10265000AA0BE0E8FEEF16161706E807F907C0F028
:1026600012161306E407F50798F0621B730B840B30
:10267000950B39F40A2661F0232B242B252B21F40A
:1026800008950A2609F4A140A6958FEF811D811DAA
:10269000089597F99F6780E870E060E008959FEFE4
:1026A00080EC0895DF93CF931F930F93FF92EF92E7
:1026B000DF927B018C01689405C0DA2EEF01B8D05F
:1026C000FE01E894A5912591359145915591AEF380
:1026D000EF0129DEFE019701A801DA9479F7DF9076
:1026E000EF90FF900F911F91CF91DF9108950024FB
:1026F0000A941616170618060906089500240A9467
:1027000012161306140605060895C9CF59D0E8F32A
:10271000E894EFEFBB273FE048EC5FE76B3D7307C2
:102720008407950708F1FF279F57B25A6A4D7F40EB
:10273000894CF04032F4BE556542704F8643FF4FDE
:102740000894EE1F915030F0BB0F661F771F881F53
:10275000FF1FEBCF9EE7882332F0BB0F661F771F6A
:10276000881F9A95C1F79395E095C2C0092E0394EE
:10277000000C11F4882352F0BB0F40F4BF2B11F46E
:1027800060FF04C06F5F7F4F8F4F9F4F0895EF939F
:10279000E0FF06C0A2EA2AED3FE049EC5FEBC3DDB3
:1027A000E5DF0F90039401FC9058E5E9F0E0B0C03C
:1027B00057FD9058440F551F59F05F3F71F04795F2
:1027C000880F97FB991F61F09F3F79F087950895D7
:1027D000121613061406551FF2CF4695F1DF08C0F6
:1027E000161617061806991FF1CF86957105610513
:1027F00008940895E894BB2766277727CB0197F9BB
:10280000089523DF08F48FEF08959B01AC0160E089
:1028100070E080E89FE343CE0BD0A8CF68DF28F0BC
:102820006DDF18F0952309F034CF39CF1124E3CFB1
:10283000BFDFA0F3959FD1F3950F50E0551F629F26
:10284000F001729FBB27F00DB11D639FAA27F00D09
:10285000B11DAA1F649F6627B00DA11D661F829F30
:102860002227B00DA11D621F739FB00DA11D621F15
:10287000839FA00D611D221F749F3327A00D611D32
:10288000231F849F600D211D822F762F6A2F112414
:102890009F5750408AF0E1F088234AF0EE0FFF1F67
:1028A000BB1F661F771F881F91505040A9F79E3F9E
:1028B000510570F0EECE9FCF5F3FECF3983EDCF316
:1028C000869577956795B795F795E7959F5FC1F7DB
:1028D000FE2B880F911D9695879597F908959F93E4
:1028E00015DF0F9007FCEE5F52CF9B01AC0194CF38
:1028F0009F3F49F0915028F4869577956795B79555
:102900009F5F80389F4F880F9695879597F9089518
:102910009F938F937F936F93FF93EF939B01AC01F2
:102920007BDFEF91FF91BEDE2F913F914F915F9141
:1029300073CF629FD001739FF001829FE00DF11D64
:10294000649FE00DF11D929FF00D839FF00D749F29
:10295000F00D659FF00D9927729FB00DE11DF91FD5
:10296000639FB00DE11DF91FBD01CF011124089532
:10297000991B79E004C0991F961708F0961B881FD1
:102980007A95C9F78095089597FB092E07260AD0F6
:1029900077FD04D049D006D000201AF470956195D7
:1029A0007F4F0895F6F7909581959F4F0895A1E286
:1029B0001A2EAA1BBB1BFD010DC0AA1FBB1FEE1FB9
:1029C000FF1FA217B307E407F50720F0A21BB30B04
:1029D000E40BF50B661F771F881F991F1A9469F780
:1029E00060957095809590959B01AC01BD01CF01DC
:1029F000089597FB092E05260ED057FD04D0D7DF8A
:102A00000AD0001C38F450954095309521953F4FE1
:102A10004F4F5F4F0895F6F79095809570956195AB
:102A20007F4F8F4F9F4F0895AA1BBB1B51E107C0DB
:102A3000AA1FBB1FA617B70710F0A61BB70B881F4E
:102A4000991F5A95A9F780959095BC01CD010895DD
:102A5000EE0FFF1F0590F491E02D0994F894FFCF3D
:102A600070726F783A200043757272656E742068D8
:102A7000656164696E673A20002020686561646959
:102A80006E67546F576179706F696E743A20006396
:102A9000757272656E74506F736974696F6E3A20E7
:102AA0000020200063757272656E74576179706FD3
:102AB000696E743A20002E000000A04000004842D9
:102AC0000000B442000048420000B442000048C286
:102AD0000000000000004842040001000000204106
:102AE0000000184101002300410005000D00030013
:102AF00011000E000F001000010100000000C403CF
:102B000093034C0355036A037B03000000002B0D65
:0A2B1000B40DBF0CF00CD00C190D31
:00000001FF
