:100000000C9402010C9422010C9422010C94220104
:100010000C9422010C9422010C9422010C942201D4
:100020000C9422010C9422010C9422010C942201C4
:100030000C9422010C9422010C9422010C942201B4
:100040000C9422010C9422010C9422010C942201A4
:100050000C9422010C9422010C9422010C94510165
:100060000C9422010C9422010C9422010C94220184
:100070000C9422010C9422010C9422010C94220174
:100080000C9422010C9422010C9422010C94220164
:100090000C9422010C9422010C9422010C94220154
:1000A0000C9422010C9422010C9422010C94220144
:1000B0000C9422010C9422010C9422010C94220134
:1000C0000C9422010C9422010C9422010C94220124
:1000D0000C9422010C9422010C9422010C94220114
:1000E0000C94220100002100240027002A002D008A
:1000F0003000330001010000040107010A01000083
:100100002200250028002B002E00310034000201BF
:100110000000050108010B0100002000230026005B
:1001200029002C002F00320000010000030106010D
:10013000090105050505070508080808020202026D
:100140000A0A080804040404010101010101010173
:100150000303030303030303040707070C0C0C0C3E
:100160000C0C0C0C02020202060606060606060627
:100170000B0B0B0B0B0B0B0B0102102020080810B4
:100180002040102040800201020108040201010207
:1001900004081020408080402010080402018004E0
:1001A000020180402010080402010804020101023B
:1001B0000408102040800102040810204080000044
:1001C000090A02080B0C0D070603040100000000D9
:1001D000000000000000000000000000000000001F
:1001E0000000000000000000000011100F000000DF
:1001F00000000000000000000000000000000000FF
:100200000000000011241FBECFEFD1E2DEBFCDBF42
:1002100012E0A0E0B2E0EAEFF5E000E00BBF02C0C0
:1002200007900D92A230B107D9F71BBE12E0A2E0F1
:10023000B2E001C01D92AC30B107E1F70E9442016B
:100240000C94FB020C940000089590E0809102024F
:10025000882309F491E090930202992321F0809180
:10026000000261E003C08091000260E00E94C802C9
:10027000089568E873E180E090E00E9499010E948F
:1002800025010895CF93DF930E94F2010E9424017B
:10029000C0E0D0E00E9439012097E1F30E94000005
:1002A000F9CF1F920F920FB60F9211242F933F9305
:1002B0008F939F93AF93BF93809107029091080211
:1002C000A0910902B0910A0230910B020196A11D82
:1002D000B11D232F2D5F2D3720F02D570196A11D25
:1002E000B11D20930B028093070290930802A09304
:1002F0000902B0930A028091030290910402A09136
:100300000502B09106020196A11DB11D8093030262
:1003100090930402A0930502B0930602BF91AF919F
:100320009F918F913F912F910F900FBE0F901F9033
:1003300018959B01AC017FB7F894809103029091CE
:100340000402A0910502B091060266B5A89B05C003
:100350006F3F19F00196A11DB11D7FBFBA2FA92FC4
:10036000982F8827860F911DA11DB11D62E0880F6F
:10037000991FAA1FBB1F6A95D1F7BC012DC0FFB7FB
:10038000F8948091030290910402A0910502B0912B
:100390000602E6B5A89B05C0EF3F19F00196A11D26
:1003A000B11DFFBFBA2FA92F982F88278E0F911D3F
:1003B000A11DB11DE2E0880F991FAA1FBB1FEA957E
:1003C000D1F7861B970B885E9340C8F221503040CE
:1003D0004040504068517C4F211531054105510581
:1003E00071F60895789484B5826084BD84B5816087
:1003F00084BD85B5826085BD85B5816085BDEEE62D
:10040000F0E0808181608083E1E8F0E0108280810B
:1004100082608083808181608083E0E8F0E0808179
:1004200081608083E1EBF0E0808184608083E0EB99
:10043000F0E0808181608083E1E9F0E0808182608A
:100440008083808181608083E0E9F0E08081816049
:100450008083E1EAF0E08081826080838081816036
:100460008083E0EAF0E0808181608083E1E2F1E076
:10047000808182608083808181608083E0E2F1E01E
:10048000808181608083EAE7F0E0808184608083FE
:1004900080818260808380818160808380818068A8
:1004A00080831092C1000895893009F449C08A30D0
:1004B000A0F4843051F1853040F4823079F18330FA
:1004C00000F5813009F063C026C0873079F18830AB
:1004D00098F5863009F05BC025C08D3009F442C024
:1004E0008E3028F48B30B1F18C30C0F52DC08031C6
:1004F00009F442C0813109F445C08F3009F047C08A
:1005000037C0809180008F7703C0809180008F7DFD
:1005100080938000089584B58F7702C084B58F7D65
:1005200084BD08958091B0008F7703C08091B000A2
:100530008F7D8093B0000895809190008F7707C0E1
:10054000809190008F7D03C080919000877F809381
:10055000900008958091A0008F7707C08091A0003F
:100560008F7D03C08091A000877F8093A0000895B5
:10057000809120018F7703C0809120018F7D80932F
:100580002001089580912001877F809320010895A4
:10059000FF920F931F93F62E482F50E0CA0182540A
:1005A0009E4FFC012491CA0188589E4FFC01149172
:1005B0004E5C5E4FFA0104910023C9F0222319F02A
:1005C000822F0E945402E02FF0E0EE0FFF1FE25056
:1005D000FF4FA591B4919FB7F894FF2021F48C911F
:1005E0001095812302C08C91812B8C939FBF1F910A
:0A05F0000F91FF900895F894FFCFDB
:0205FA000D00F2
:00000001FF
