:100000000C9462000C948A000C948A000C948A0070
:100010000C948A000C948A000C948A000C948A0038
:100020000C948A000C948A000C948A000C948A0028
:100030000C948A000C948A000C948A000C948A0018
:100040000C9473070C948A000C94E5020C942C0316
:100050000C948A000C948A000C948A000C948A00F8
:100060000C948A000C948A000000000024002700F1
:100070002A0000000000250028002B0000000000DE
:1000800023002600290004040404040404040202DA
:100090000202020203030303030301020408102007
:1000A0004080010204081020010204081020000012
:1000B0000007000201000003040600000000000029
:1000C0000000920411241FBECFEFD8E0DEBFCDBFE9
:1000D00011E0A0E0B1E0E2E6F2E102C005900D928D
:1000E000AA33B107D9F711E0AAE3B1E001C01D922C
:1000F000A13FB107E1F710E0C4ECD0E004C02297C3
:10010000FE010E94F408C23CD107C9F70E946407AF
:100110000C942F090C940000CF93DF93BC01823024
:10012000910510F462E070E0A091EF01B091F00150
:10013000ED01E0E0F0E040E050E021C088819981ED
:100140008617970769F48A819B81309719F093830A
:10015000828304C09093F0018093EF01FE0134C0CC
:100160006817790738F44115510519F08417950778
:1001700008F4AC01FE018A819B819C01E901209772
:10018000E9F641155105A9F1CA01861B970B0497A1
:1001900008F4BA01E0E0F0E02AC08D919C9111973B
:1001A00084179507F9F46417750781F412968D91F9
:1001B0009C911397309719F09383828304C0909396
:1001C000F0018093EF01FD0132964CC0CA01861BFD
:1001D000970BFD01E80FF91F6193719302978D93BF
:1001E0009C9340C0FD01828193819C01D9011097AD
:1001F000A1F68091ED019091EE01892B41F480915F
:100200002401909125019093EE018093ED0140919E
:100210002601509127014115510541F44DB75EB7B4
:100220008091220190912301481B590B2091ED01EF
:100230003091EE01CA01821B930B8617970780F05D
:10024000AB014E5F5F4F8417950750F0420F531F6D
:100250005093EE014093ED01F9016193719302C057
:10026000E0E0F0E0CF01DF91CF910895CF93DF93ED
:10027000009709F450C0EC0122971B821A82A091CA
:10028000EF01B091F001109709F140E050E0AC1798
:10029000BD0708F1BB83AA83FE0121913191E20FD2
:1002A000F31FAE17BF0779F48D919C911197280F1A
:1002B000391F2E5F3F4F3983288312968D919C9171
:1002C00013979B838A834115510571F4D093F001F4
:1002D000C093EF0120C012968D919C911397AD01B0
:1002E000009711F0DC01D3CFFA01D383C2832191AF
:1002F0003191E20FF31FCE17DF0769F488819981EE
:10030000280F391F2E5F3F4FFA01318320838A81E6
:100310009B8193838283DF91CF910895A0E0B0E029
:10032000E4E9F1E00C94FA086C01009729F4CB01A0
:100330000E948C006C01C1C08EEF882E8FEF982E2A
:100340008C0C9D1C8601060F171F0815190508F453
:10035000B2C0F401A081B181A617B707B8F0A530EB
:10036000B10508F4AAC0CD0104978617970708F4D1
:10037000A4C01297A61BB70BF801A193B193D401A7
:100380006D937C93CF010E94360197C07B01EA1ADE
:10039000FB0AEEEFFFEFEE0EFF1E36016A0E7B1E2C
:1003A000C091EF01D091F00144245524AA24BB242C
:1003B0004AC0C615D705E1F5488159814E155F053C
:1003C000B8F1CA0104978E159F05B0F41296A40FD8
:1003D000B51FF401B183A0832A813B8141145104EC
:1003E00031F0D20113963C932E93129766C030934E
:1003F000F0012093EF0161C08A819B81F801938312
:100400008283425050404E195F095183408341140A
:10041000510431F0D20113961C930E93129704C02D
:100420001093F0010093EF01F4017183608345C0E4
:1004300088819981A816B90608F45C012E018A8189
:100440009B819C01E901209709F0B3CF8091ED01D8
:100450009091EE0186159705E9F4A616B706D0F43B
:1004600020912601309127012115310541F42DB746
:100470003EB78091220190912301281B390B02176E
:100480001307C8F41093EE010093ED01D4016D93AE
:100490007C9313C0CB010E948C00EC01009759F0B3
:1004A000F40140815181B6010E946302C6010E949D
:1004B00036016E0102C0CC24DD24C601CDB7DEB703
:1004C000E0E10C941609FB01DC0102C001900D92E1
:1004D00041505040D8F70895FB01DC0101900D9286
:1004E0000020E1F7089585EC91E040E052EC61E0F6
:1004F00070E00E946703089590E080913C0188239A
:1005000009F491E090933C01992321F08091280116
:1005100061E003C08091280160E00E945D080895B9
:10052000EF92FF920F931F93DF93CF93CDB7DEB778
:1005300027970FB6F894DEBF0FBECDBF05EC11E0D4
:10054000C80160E071E00E94F70560913A01709186
:100550003B016F5F7F4F70933B0160933A016150A5
:100560007040C8014AE050E00E94E405C8016FE015
:1005700071E00E94F7057E010894E11CF11CC7019F
:10058000B8010E946D06C801B7010E942D06C7017F
:100590000E945E07C8016FE171E00E94F70568EEF6
:1005A00073E080E090E00E94C9070E947C022796D9
:1005B0000FB6F894DEBF0FBECDBFCF91DF911F9174
:1005C0000F91FF90EF90089508951F920F920FB62C
:1005D0000F9211242F933F934F938F939F93EF93F9
:1005E000FF934091C60020917D0130917E012F5FE5
:1005F0003F4F2F73307080917F01909180012817B9
:10060000390759F0E0917D01F0917E01E35CFE4FE6
:10061000408330937E0120937D01FF91EF919F9164
:100620008F914F913F912F910F900FBE0F901F9080
:100630001895E091D101F091D201E05CFF4F8191DA
:10064000919120813181821B930B8F739070892B44
:1006500011F00E94E40208951F920F920FB60F92BC
:1006600011242F933F938F939F93EF93FF932091A8
:10067000C1013091C2018091C3019091C40128173A
:10068000390731F48091C1008F7D8093C10014C07F
:10069000E091C301F091C401EF57FE4F208180919A
:1006A000C3019091C40101968F7390709093C4011F
:1006B0008093C3012093C600FF91EF919F918F918A
:1006C0003F912F910F900FBE0F901F901895AF92F2
:1006D000BF92DF92EF92FF920F931F93CF93DF931E
:1006E000EC017A018B01DD24403081EE580780E077
:1006F000680780E0780711F0DD24D39491E0A92EFB
:10070000B12CEC89FD89DD2069F0C5010E8C02C099
:10071000880F991F0A94E2F7808360E079E08DE307
:1007200090E005C0108260E874E88EE190E0A801D6
:1007300097010E94D00821503040404050405695CB
:1007400047953795279580E12030380720F0DD2048
:1007500011F0DD24D6CFE889F9893083EA89FB8955
:100760002083EE89FF89408121E030E0C9010A8CB5
:1007700002C0880F991F0A94E2F7482B4083EE8944
:10078000FF894081C9010B8C02C0880F991F0A9410
:10079000E2F7482B4083EE89FF894081C9010C8C28
:1007A00002C0880F991F0A94E2F7482B4083EE8914
:1007B000FF8980810D8C02C0220F331F0A94E2F75B
:1007C000209528232083DF91CF911F910F91FF90D7
:1007D000EF90DF90BF90AF900895DC011C96ED91F3
:1007E000FC911D97E05CFF4F2191319180819181B7
:1007F000281B390B2F733070C9010895DC011C963A
:10080000ED91FC911D97E05CFF4F20813181E05418
:10081000F040DF01AE5BBF4F8D919C91119728177F
:10082000390719F42FEF3FEF07C08D919C91E80F26
:10083000F91F8081282F30E0C9010895DC011C9642
:10084000ED91FC911D97E05CFF4F20813181E054D8
:10085000F040DF01AE5BBF4F8D919C91119728173F
:10086000390719F42FEF3FEF10C08D919C9111972C
:10087000E80FF91F20818D919C91119701968F733C
:10088000907011969C938E9330E0C9010895FC01FD
:1008900086859785DC01A05CBF4FFC01EE5BFF4FB6
:1008A0002D913C9111978081918128173907C1F7CB
:1008B0000895CF93DF93EC01EE85FF85E05CFF4F59
:1008C00020813181E054F0402F5F3F4F2F73307013
:1008D000DF01AE5BBF4F8D919C91119728173907AF
:1008E000D1F3E05CFF4F80819181E054F040E80F4C
:1008F000F91F6083EE85FF85E05CFF4F3183208325
:10090000EE89FF89208181E090E00D8C02C0880F84
:10091000991F0A94E2F7282B208381E090E0DF9171
:10092000CF9108951092C8011092C70188EE93E00C
:10093000A0E0B0E08093C9019093CA01A093CB01DD
:10094000B093CC018EE291E09093C6018093C501F3
:100950008DE391E09093D2018093D10181E891E001
:100960009093D4018093D30185EC90E09093D601CD
:100970008093D50184EC90E09093D8018093D701C7
:1009800080EC90E09093DA018093D90181EC90E0C3
:100990009093DC018093DB0186EC90E09093DE0184
:1009A0008093DD0184E08093DF0183E08093E001A8
:1009B00087E08093E10185E08093E20181E080930C
:1009C000E3010895CF92DF92EF92FF920F931F936E
:1009D000CF93DF937C016B018A01C0E0D0E00FC0B0
:1009E000D6016D916D01D701ED91FC910190F081DF
:1009F000E02DC7010995C80FD91F015010400115FE
:100A0000110571F7CE01DF91CF911F910F91FF90EA
:100A1000EF90DF90CF900895EF92FF920F931F9386
:100A20008C01DC01ED91FC910190F081E02D6DE0F5
:100A300009957C01D801ED91FC910190F081E02DA8
:100A4000C8016AE009959C012E0D3F1DC9011F9147
:100A50000F91FF90EF900895CF93DF93DB010D90FE
:100A60000020E9F71197A61BB70BEC01E881F9818B
:100A70000280F381E02DAD010995DF91CF910895BA
:100A80004F925F927F928F929F92AF92BF92CF923E
:100A9000DF92EF92FF920F931F93DF93CF93CDB727
:100AA000DEB7A1970FB6F894DEBF0FBECDBF2C0105
:100AB000742ECB01223008F42AE019A231E2C32EB1
:100AC000D12CCC0EDD1E822E9924AA24BB24672DA6
:100AD000752FA50194010E94D00879018A01C801EF
:100AE000B701A50194010E94B108472D461B089447
:100AF000C108D1084A3014F4405D01C0495CF601D8
:100B00004083E114F1040105110521F07E2C5F2DD5
:100B1000C801DDCFC201B6010E942C05A1960FB617
:100B2000F894DEBF0FBECDBFCF91DF911F910F9123
:100B3000FF90EF90DF90CF90BF90AF909F908F90FD
:100B40007F905F904F900895CF92DF92EF92FF9247
:100B50000F931F93CF93DF93EC016A017B01211563
:100B6000310541F4E881F9810190F081E02D642F95
:100B700009951FC02A303105D1F477FF17C0E881ED
:100B8000F9810190F081E02D6DE209958C014427F7
:100B90005527BA014C195D096E097F09CE012AE07B
:100BA0000E9440059801280F391F04C02AE00E94C6
:100BB00040059C01C901DF91CF911F910F91FF90DA
:100BC000EF90DF90CF900895EF92FF920F931F93D5
:100BD0007B019A010027F7FC0095102FB801A701AF
:100BE0000E94A4051F910F91FF90EF9008950E941D
:100BF0002C050895AF92BF92CF92DF92EF92FF92B1
:100C00000F931F93CF93DF935C016B01EE24FF24BE
:100C1000C0E0D0E010C0D501ED91FC9100811181C0
:100C2000C601BE010E948A06682FC501F801099518
:100C3000E80EF91E2196F60184819581C817D9071F
:100C400050F3C701DF91CF911F910F91FF90EF906B
:100C5000DF90CF90BF90AF900895EF92FF920F93E7
:100C60001F937C010E94FA058C01C7010E940C05AC
:100C70009C01200F311FC9011F910F91FF90EF9030
:100C80000895CF93DF93EC010E94BB0768877987B3
:100C90008A879B87E881F9810680F781E02DCE0164
:100CA00009959C0197FF15C00E94BB0728853985CF
:100CB0004A855B85621B730B840B950B2C813D81F0
:100CC0004E815F81621773078407950718F32FEF32
:100CD0003FEFC901DF91CF9108950F931F93CF93F9
:100CE000DF93182F092FEB0161E271E00E944407A6
:100CF00004C0812F902F0E94FE06CE010E94410663
:100D0000BC0197FFF6CF812F902FDF91CF911F91DC
:100D10000F910895FC01848195816817790748F443
:100D20000190F081E02D309721F0E60FF71F8081D0
:100D3000089580E008950F931F93CF93DF93EC0104
:100D40008B016F5F7F4F888199810E948E01009790
:100D500011F480E005C0998388831B830A8381E0B6
:100D6000DF91CF911F910F910895CF93DF93EC0105
:100D700088819981892B29F08A819B818617970721
:100D800060F4CE010E949B06882341F08C819D81F6
:100D9000892B19F4E881F981108281E0DF91CF91EC
:100DA0000895EF92FF920F931F93CF93DF93EC017F
:100DB0007B016C817D81E114F104C1F04115510585
:100DC00099F08A01060F171FB8010E94B506882303
:100DD00069F0888199812C813D81820F931FB70131
:100DE0000E946C021D830C8381E001C080E0DF91D2
:100DF000CF911F910F91FF90EF900895DF93CF93C4
:100E000000D0CDB7DEB769831A82BE016F5F7F4F16
:100E100041E050E00E94D1060F900F90CF91DF91FA
:100E20000895CF93DF93EC0188819981009711F0A9
:100E30000E943601198218821D821C821B821A822E
:100E4000DF91CF910895EF92FF920F931F93CF936D
:100E5000DF93EC017B018A01BA010E94B506882369
:100E600021F4CE010E94110707C01D830C838881E5
:100E70009981B7010E946C02CE01DF91CF911F9141
:100E80000F91FF90EF900895CF93DF93EC011982BB
:100E900018821B821A821D821C821E8261157105B6
:100EA00051F0DB010D900020E9F71197A61BB70B5D
:100EB000AD010E942307DF91CF910895FC0180814D
:100EC00091810E9436010895CF93DF930E942208FA
:100ED0000E947302C9E1D3E00E9490022097E1F3DF
:100EE0000E941903F9CF1F920F920FB60F9211248F
:100EF0002F933F938F939F93AF93BF938091E8017C
:100F00009091E901A091EA01B091EB013091EC01DF
:100F10000196A11DB11D232F2D5F2D3720F02D57D8
:100F20000196A11DB11D2093EC018093E8019093DF
:100F3000E901A093EA01B093EB018091E401909163
:100F4000E501A091E601B091E7010196A11DB11D57
:100F50008093E4019093E501A093E601B093E7014B
:100F6000BF91AF919F918F913F912F910F900FBEA5
:100F70000F901F9018958FB7F8942091E801309149
:100F8000E9014091EA015091EB018FBFB901CA011B
:100F900008959B01AC017FB7F8948091E401909192
:100FA000E501A091E601B091E70166B5A89B05C0F7
:100FB0006F3F19F00196A11DB11D7FBFBA2FA92F58
:100FC000982F8827860F911DA11DB11D62E0880F03
:100FD000991FAA1FBB1F6A95D1F7BC012DC0FFB78F
:100FE000F8948091E4019091E501A091E601B0911F
:100FF000E701E6B5A89B05C0EF3F19F00196A11DDA
:10100000B11DFFBFBA2FA92F982F88278E0F911DD2
:10101000A11DB11DE2E0880F991FAA1FBB1FEA9511
:10102000D1F7861B970B885E9340C8F22150304061
:101030004040504068517C4F211531054105510514
:1010400071F60895789484B5826084BD84B581601A
:1010500084BD85B5826085BD85B5816085BDEEE6C0
:10106000F0E0808181608083E1E8F0E0108280819F
:1010700082608083808181608083E0E8F0E080810D
:1010800081608083E1EBF0E0808184608083E0EB2D
:10109000F0E0808181608083EAE7F0E08081846015
:1010A0008083808182608083808181608083808171
:1010B000806880831092C1000895482F50E0CA01D3
:1010C00082559F4FFC012491CA0186569F4FFC0117
:1010D00094914A575F4FFA013491332309F440C089
:1010E000222351F1233071F0243028F42130A1F073
:1010F000223011F514C02630B1F02730C1F0243071
:10110000D9F404C0809180008F7703C08091800063
:101110008F7D8093800010C084B58F7702C084B526
:101120008F7D84BD09C08091B0008F7703C080910E
:10113000B0008F7D8093B000E32FF0E0EE0FFF1F33
:10114000EE58FF4FA591B4912FB7F894662321F480
:101150008C919095892302C08C91892B8C932FBF01
:101160000895629FD001739FF001829FE00DF11DF1
:10117000649FE00DF11D929FF00D839FF00D749F11
:10118000F00D659FF00D9927729FB00DE11DF91FBD
:10119000639FB00DE11DF91FBD01CF01112408951A
:1011A000A1E21A2EAA1BBB1BFD010DC0AA1FBB1F6B
:1011B000EE1FFF1FA217B307E407F50720F0A21BDD
:1011C000B30BE40BF50B661F771F881F991F1A944A
:1011D00069F760957095809590959B01AC01BD0174
:1011E000CF010895EE0FFF1F0590F491E02D0994B3
:1011F0002F923F924F925F926F927F928F929F9227
:10120000AF92BF92CF92DF92EF92FF920F931F9314
:10121000CF93DF93CDB7DEB7CA1BDB0B0FB6F894C5
:10122000DEBF0FBECDBF09942A88398848885F8405
:101230006E847D848C849B84AA84B984C884DF8076
:10124000EE80FD800C811B81AA81B981CE0FD11D5A
:101250000FB6F894DEBF0FBECDBFED010895F89430
:02126000FFCFBE
:1012620048656C6C6F2C20776F726C643A2000209A
:1012720020202020206D736720726561643A007817
:1012820000002000F10100000D00000000005904E0
:0A129200E204ED031E04FE0347040E
:00000001FF
