:100000000C94AF000C94D7000C94D7000C94D7003C
:100010000C94D7000C94D7000C94D7000C94D70004
:100020000C94D7000C94D7000C94D7000C94D700F4
:100030000C94D7000C94D7000C94D7000C94D700E4
:100040000C946F270C94D7000C9451230C94982394
:100050000C94D7000C94D7000C94D7000C94D700C4
:100060000C94D7000C94D700084AD73B3BCE016EC6
:1000700084BCBFFDC12F3D6C74319ABD56833DDAFF
:100080003D00C77F11BED9E4BB4C3E916BAAAABE0E
:10009000000000803F05A84CCDB2D44EB93836A937
:1000A000020C50B9918688083CA6AAAA2ABE000074
:1000B00000803F7C3C3E5E2B3D3F2F5B5D3B2C2A0E
:1000C000225C0000000000240027002A000000003D
:1000D00000250028002B0000000000230026002936
:1000E00000040404040404040402020202020203E1
:1000F00003030303030102040810204080010204EB
:10010000081020010204081020000000070002016E
:1001100000000304060000000000000000494E46F5
:10012000494E4954594E414ECDCCCC3D0AD7233C83
:1001300017B7D13877CC2B329595E6241FB14F0AEB
:10014000000020410000C84200401C4620BCBE4CBC
:10015000CA1B0E5AAEC59D74D104E714FE241124A7
:100160001FBECFEFD8E0DEBFCDBF12E0A0E0B1E010
:10017000E2E4FBE502C005900D92A238B107D9F781
:1001800016E0A2E8B2E001C01D92A236B107E1F785
:1001900011E0CEE5D1E004C02297FE010E94592D66
:1001A000C835D107C9F70E9460270C949F2D0C9485
:1001B0000000CF93DF93BC018230910510F462E020
:1001C00070E0A0915E06B0915F06ED01E0E0F0E026
:1001D00040E050E021C0888199818617970769F433
:1001E0008A819B81309719F09383828304C0909316
:1001F0005F0680935E06FE0134C06817790738F405
:100200004115510519F08417950708F4AC01FE015A
:100210008A819B819C01E9012097E9F641155105EE
:10022000A9F1CA01861B970B049708F4BA01E0E014
:10023000F0E02AC08D919C91119784179507F9F4ED
:100240006417750781F412968D919C9113973097DE
:1002500019F09383828304C090935F0680935E06B7
:10026000FD0132964CC0CA01861B970BFD01E80FB9
:10027000F91F6193719302978D939C9340C0FD0188
:10028000828193819C01D9011097A1F680915C062F
:1002900090915D06892B41F480914602909147022E
:1002A00090935D0680935C0640914802509149020C
:1002B0004115510541F44DB75EB7809144029091CC
:1002C0004502481B590B20915C0630915D06CA011E
:1002D000821B930B8617970780F0AB014E5F5F4F31
:1002E0008417950750F0420F531F50935D064093BB
:1002F0005C06F9016193719302C0E0E0F0E0CF0188
:10030000DF91CF910895CF93DF93009709F450C008
:10031000EC0122971B821A82A0915E06B0915F06C3
:10032000109709F140E050E0AC17BD0708F1BB831E
:10033000AA83FE0121913191E20FF31FAE17BF078F
:1003400079F48D919C911197280F391F2E5F3F4FA3
:100350003983288312968D919C9113979B838A836E
:100360004115510571F4D0935F06C0935E0620C01D
:1003700012968D919C911397AD01009711F0DC01BD
:10038000D3CFFA01D383C28321913191E20FF31FBE
:10039000CE17DF0769F488819981280F391F2E5FF6
:1003A0003F4FFA01318320838A819B81938382832B
:1003B000DF91CF910895A0E0B0E0E1EEF1E00C9480
:1003C0006E2DEC015B016115710519F0FB01918344
:1003D0008083F9908F2D90E00E945D2D892BC9F7C5
:1003E000FDE2FF1621F4F990EE24E39405C02BE220
:1003F000F21609F4F990EE248E0101501040C80164
:100400006DE171E043E050E00E943B03892B01F570
:100410008E010E5F1F4FC80160E271E045E050E0C1
:100420000E943B03892B19F48E01095F1F4FA11411
:10043000B10419F0F50111830083E0FC04C070E001
:1004400090E080E814C070E090E080E86FEF08C1B1
:10045000C80165E271E043E050E00E943B03892B54
:1004600069F4A114B10429F470E090E080EC6FE726
:10047000F7C02296F501D183C083F6CF8824992452
:1004800040E050E060E070E0EF2DE053EA30A0F58E
:10049000F2E0EF2A8E2D90E09C0128703070E2FE91
:1004A00006C0232B79F50894811C911C2BC0232BAB
:1004B00019F0089481089108DB01CA0112E0880F45
:1004C000991FAA1FBB1F1A95D1F7480F591F6A1F02
:1004D0007B1F440F551F661F771F4E0F511D611D57
:1004E000711D483929E9520729E9620729E1720794
:1004F00048F084E0E82A06C0EE3F31F4E3FC39C05E
:1005000098E0E92AF990C0CFE53311F0E53189F59B
:1005100029912D3219F4E0E1EE2A05C02B3219F0B1
:1005200081E090E003C0299182E090E0E22FE05367
:10053000EA3018F0C81BD90B1CC020E030E0FCE00A
:1005400020383F075CF4C901880F991F880F991F55
:10055000280F391F220F331F2E0F311DE991E05351
:10056000EA3068F3E4FE03C0309521953F4F820ED8
:10057000931ECE2CDD24E1FE07C0A114B10421F0AE
:100580002197F501D183C083CB01BA010E94C32A10
:100590007B018C01F3E0CF22DD2423E0C216D104DD
:1005A00021F417FB109517F9109557016801C80140
:1005B000B70120E030E040E050E00E94232A882389
:1005C00009F44AC097FE0DC02CE3E22E21E0F22E82
:1005D0009094819491089394C0E2D0E000E010E000
:1005E00012C094E5E92E91E0F92EF6CFF70125919E
:1005F000359145915491C601B5010E94292C5B01AA
:100600006C018C1A9D0A8C169D0684F7D595C795AA
:100610000F5F1F4F0630110529F08CEF9FEFE80E9A
:10062000F91EF1CFC501D6017C018D018C2D880FFB
:100630008D2D881F8F3F51F0C601B50120E030E0BD
:1006400040E050E00E94232A882331F482E290E0C7
:1006500090936106809360067E2D9F2D802F612FE1
:10066000272F392F482F562FB901CA01CDB7DEB732
:10067000ECE00C948A2DFB01DC014150504088F0E5
:100680008D9181341CF08B350CF4805E6591613462
:100690001CF06B350CF4605E861B611171F3990BD5
:1006A0000895881BFCCFFB01DC0104C08D910190F3
:1006B000801921F441505040C8F7881B990B0895C8
:1006C000FC018191861721F08823D9F79927089595
:1006D0003197CF010895FB01DC014150504048F0B3
:1006E00001900D920020C9F701C01D924150504069
:1006F000E0F70895FC011382128288EE93E0A0E0F7
:10070000B0E084839583A683B7838DE592E09183DF
:100710008083128E118E14860895FC018DE592E07F
:10072000918380830895DF93CF930F92CDB7DEB787
:10073000FC016983A081B18112962D913C911397A0
:10074000BE016F5F7F4F41E050E0F90109950F90C6
:10075000CF91DF910895DC015996ED91FC915A9764
:10076000309719F420E030E018C023893489458996
:10077000568982859385A485B585281B390B4A0B3C
:100780005B0B2030B0E83B07B0E04B07B0E05B0705
:1007900020F02FEF3FE740E050E0C9010895DC0171
:1007A0005996ED91FC915A97309711F480E0089595
:1007B0008581811181E00895FC01818D928D0097E2
:1007C00011F00E941E0B0895DF93CF930F92CDB7C7
:1007D000DEB7FC01818D928D009749F0BE016F5FFD
:1007E0007F4F41E050E00E943F0C019719F02FEF3E
:1007F0003FEF03C08981282F30E0C9010F90CF91CE
:10080000DF910895EF92FF920F931F93DF93CF93A1
:100810000F92CDB7DEB77C01DC0159968D919C918A
:100820005A97009719F400E010E01FC0BE016F5FF7
:100830007F4F41E050E00E943F0C019719F00FEF0D
:100840001FEF13C08981082F10E0D7015996ED9151
:10085000FC915A9742855385648575854150504077
:1008600060407040CF010E94580AC8010F90CF919C
:10087000DF911F910F91FF90EF900895CF93DF9339
:10088000EC01E98DFA8D309761F013821282CF016D
:100890000E94330E9C01E98DFA8D82819381892B10
:1008A00031F081E090E09B838A8320E030E0C90151
:1008B000DF91CF910895EF92FF920F931F93CF9303
:1008C000DF93EC01F62EE72E8A011B821A8288EE56
:1008D00093E0A0E0B0E08C839D83AE83BF838DE581
:1008E00092E0998388838DE190E00E94D9009A8FED
:1008F000898F009791F0DC018F2D9E2D9C01F901CD
:100900008DE101900D928150E1F7CE010C96B80176
:100910004CE050E00E946B03188EDF91CF911F9145
:100920000F91FF90EF9008950F931F93CF93DF9354
:100930008C01FB01C081D181FC01EC0FFD1F808186
:100940008F3209F4219698012C0F3D1FA0E0B0E0F2
:100950000BC0FA01EA0FFB1F8083119621962F5FCF
:100960003F4FAC30B10531F0F90180818F3211F089
:10097000882379F7A40FB51F1C92F801EC0FFD1F17
:1009800080818F3209F42196FB01D183C083C00F8F
:10099000D11F8881811181E0DF91CF911F910F914B
:1009A0000895109287021092880210928B02109282
:1009B0008D0282E090E0A0E0B0E080938E02909300
:1009C0008F02A0939002B09391021092A502109210
:1009D000AF021092AE028DE692E09093AD0280934A
:1009E000AC021092B1020895EF92FF921F93DF9331
:1009F000CF93CDB7DEB76D970FB6F894DEBF0FBEBD
:100A0000CDBF9C01AB011C821B828DE692E09A83D4
:100A100089831E827E010894E11CF11CC701B90183
:100A200021E00E946010182F882319F0C7010E944E
:100A3000680B812F6D960FB6F894DEBF0FBECDBF49
:100A4000CF91DF911F91FF90EF9008952F923F92E9
:100A50004F925F926F927F928F929F92BF92CF92AE
:100A6000DF92EF92FF920F931F93DF93CF93CDB757
:100A7000DEB7C954D0400FB6F894DEBF0FBECDBF6D
:100A80001C017B012A0139011B8A1A8A8DE692E03A
:100A9000998B888B1D8A18AA1FA69EA78DA71AAAB4
:100AA0001A8219828B0120E1C22ED12CCC0EDD1EC0
:100AB00093E0892E912C8C0E9D1E03C0C8018601E7
:100AC0006C01C101BE016F5F7F4FA4010E949404BD
:100AD000B82E40E0882309F441E0C801B401930135
:100AE000F2010995882339F40E151F0519F1C80183
:100AF0000E94680B1FC0BB20A9F0C601B801A40169
:100B000021E00E946010B82E0E151F0519F0C801D3
:100B10000E94680BBB2071F00E151F0579F6CE01FF
:100B20008D96CDCF0E151F0519F0C8010E94680BD8
:100B300081E001C080E0C75BDF4F0FB6F894DEBFF5
:100B40000FBECDBFCF91DF911F910F91FF90EF901E
:100B5000DF90CF90BF909F908F907F906F905F902D
:100B60004F903F902F9008959B01BC01665D7F4F91
:100B7000C90144EF54E020E030E00E9426050895CA
:100B80002F923F924F925F926F927F928F929F929D
:100B9000AF92BF92CF92DF92EF92FF920F931F938B
:100BA000DF93CF93CDB7DEB7C754D0400FB6F894DC
:100BB000DEBF0FBECDBF582E492EFB013A011901F1
:100BC00084A595A5998B888B2DE632E03F872E87EB
:100BD00086A58A8B87A58B8B80A991A9A2A9B3A989
:100BE0008C8B9D8BAE8BBF8B84A995A9A6A9B7A929
:100BF000888F998FAA8FBB8F80AD91ADA2ADB3AD19
:100C00008C8F9D8FAE8FBF8F84AD88A3FD96819111
:100C10009191A191B19189A39AA3ABA3BCA3819116
:100C20009191A191B1918DA39EA3AFA3B8A780810B
:100C300091819AA789A71EA61DA63CA72BA718AA33
:100C40007A018E01025F1F4F3BE2A32EB12CAC0E46
:100C5000BD1E4E010894811C911C35C0D7018C919A
:100C60008F3221F40894E11CF11C2DC0422F4E1943
:100C70004D3008F04CE0C42EDD24C401B701A601BC
:100C80000E946B03F401EC0DFD1D1082C5010E9452
:100C9000680BC501B801A40121E00E9460108823FF
:100CA00051F4E52DF42D138212828DE692E09183AA
:100CB0008083158266C0EC0CFD1CC8010E94680B85
:100CC000C50158018C01C7016FE270E00E9460030A
:100CD0009C01009719F6E618F708F101F182E0820D
:100CE000E52DF42DD80112968D919C911397938345
:100CF00082838DE692E09183808314968C91149781
:100D0000848315968C911597858316962D913D9128
:100D10004D915C91199726833783408751871A96A6
:100D20002D913D914D915C911D972287338744878A
:100D300055871E962D913D914D915C915197268737
:100D40003787408B518B52968C915297828B53965A
:100D50002D913D914D915C915697238B348B458B12
:100D6000568B57962D913D914D915C915A97278BBB
:100D7000308F418F528F5B968D919C915C97948FB1
:100D8000838F852D942DC95BDF4F0FB6F894DEBF9E
:100D90000FBECDBFCF91DF911F910F91FF90EF90CC
:100DA000DF90CF90BF90AF909F908F907F906F908B
:100DB0005F904F903F902F9008959F92AF92BF9277
:100DC000CF92DF92EF92FF920F931F93DF93CF9317
:100DD000CDB7DEB7C657D0400FB6F894DEBF0FBE12
:100DE000CDBFC82E992E8A01D22E43E0A42EB12C5D
:100DF000AC0EBD1EC501A8019E012F5F3F4F0E9492
:100E0000C005E980FA80E00EF11EF70180814DE611
:100E100052E02885882309F03FC08D819E819BA3E5
:100E20008AA359A348A38F818CA32DA389859A8572
:100E3000AB85BC858EA39FA3A8A7B9A78D859E85EA
:100E4000AF85B8898AA79BA7ACA7BDA789899A89CE
:100E5000AB89BC898EA79FA7A8ABB9AB8D898AAB9C
:100E60008E899F89A88DB98D8BAB9CABADABBEAB8A
:100E70008A8D9B8DAC8DBD8D8FAB98AFA9AFBAAF6E
:100E80008E8D9F8D9CAF8BAF8C2D992DBE01605E9A
:100E90007F4F40E051E09FC0FE01FF96118210821B
:100EA0005EAF4DAFFE01EE5BFF4F10822223A9F033
:100EB0002250CE01CD96223048F46CEA72E0A701B0
:100EC0002D2D0E946010882381F407C0B501A70171
:100ED0002D2D0E946010882329F48C2D992D0E94BD
:100EE0007A037BC0C5010E94680BF6E0DF2259F04F
:100EF000FE01E05BFF4F4081518162817381CE0131
:100F0000CD960E94580A9E01265A3F4FFE01FF9639
:100F100080819181F901938382838DE692E09183B0
:100F20008083FE01EF5BFF4F8081F9018483FE0126
:100F3000EE5BFF4F8081F9018583FE01ED5BFF4F82
:100F400080819181A281B381F90186839783A087F3
:100F5000B187FE01E95BFF4F80819181A281B3815E
:100F6000F90182879387A487B587FE01E55BFF4F70
:100F700080819181A281B381F90186879787A08BB7
:100F8000B18BFE01E15BFF4F8081F901828BFE0195
:100F9000E05BFF4F80819181A281B381F901838B56
:100FA000948BA58BB68BFE01EC5AFF4F808191810B
:100FB000A281B381F901878B908FA18FB28FFE013F
:100FC000E85AFF4F80819181F901948F838F8C2D96
:100FD000992DB901A7010E945B048C2D992DCA5847
:100FE000DF4F0FB6F894DEBF0FBECDBFCF91DF91BC
:100FF0001F910F91FF90EF90DF90CF90BF90AF9037
:101000009F900895FF920F931F93CF93DF938B01CF
:101010000E94B727EB01FF24FA94FEBC0DB407FE33
:10102000FDCF8EB58F3F11F481E008C00E94B72735
:101030006C1B7D0B6017710780F380E0DF91CF910F
:101040001F910F91FF900895FC01848160E00E9440
:10105000A2280895FC01848161E00E94A2280895DD
:10106000DC016EBDFA0120E030E00DB407FEFDCFDB
:1010700080818EBD0DB407FEFDCF81818EBD2E5FB8
:101080003F4F329682E02030380779F70DB407FEE3
:10109000FDCF8FEF8EBD0DB407FEFDCF8FEF8EBD60
:1010A0000DB407FEFDCF8FEF8EBD0DB407FEFDCF53
:1010B0008EB51A968C931A978F71853011F481E052
:1010C000089581E115968C931597CD010E942A0809
:1010D00080E00895FF920F931F93CF93DF93EC016D
:1010E0000E94B7278B01FF24FA9409C00E94B727FA
:1010F000601B710B6D52714010F08FE00DC0FEBC93
:101100000DB407FEFDCF8EB58A878F3F79F38E3FF2
:1011100011F481E006C08DE08D83CE010E942A0883
:1011200080E0DF91CF911F910F91FF900895CF93B1
:10113000DF93EC018E818823D1F08FEF8EBD2F815C
:1011400038854FEF04C00DB407FEFDCF4EBD2F5FB5
:101150003F4FC901019781509240A8F338872F83F0
:101160000DB407FEFDCFCE010E942A081E82DF913A
:10117000CF910895DF92EF92FF920F931F93CF9339
:10118000DF93EC01D62E79018A010E949708CE01E7
:101190000E942408CE016CE271E00E9402088D2DAD
:1011A00080648EBD0DB407FEFDCF28E130E0D8018C
:1011B000C701022E04C0B695A795979587950A9406
:1011C000D2F78EBD0DB407FEFDCF285030408FEF13
:1011D000283F380761F7DD2011F485E906C088E073
:1011E000D81611F487E801C08FEF8EBD0DB407FE4D
:1011F000FDCF90E02FEF2EBD0DB407FEFDCF8EB5D5
:1012000087FF02C09150B9F78A87DF91CF911F9174
:101210000F91FF90EF90DF900895CF92DF92EF92C1
:10122000FF920F931F93CF93DF93EC017A018B0111
:101230006901411551056105710511F482E137C05D
:101240008B85833039F029E0EE0CFF1C001F111F45
:101250002A95D1F7CE0168E1A80197010E94BA084A
:10126000882311F084E023C0CE016EEFA6010E9416
:1012700030088823E9F0CE0168E572E00E94020898
:10128000882311F485E113C0CE016DE020E030E049
:1012900040E050E00E94BA08882341F48FEF8EBDF1
:1012A0000DB407FEFDCF8EB5882379F084E18D83E0
:1012B000CE010E942A0880E0DF91CF911F910F910B
:1012C000FF90EF90DF90CF900895CE010E942A0802
:1012D00081E0F2CF8F929F92AF92BF92CF92DF9236
:1012E000EF92FF920F931F93CF93DF93EC015A017C
:1012F0006B0149010115110509F47BC0C801820F7A
:10130000931F8150924008F06FC08E81882371F046
:1013100088819981AA81BB81481759076A077B0791
:1013200029F48F8198858816990618F5A882B982C4
:10133000CA82DB828B85833039F069E0AA0CBB1C42
:10134000CC1CDD1C6A95D1F7CE0161E1A6019501A7
:101350000E94BA08882319F083E08D8345C0CE012E
:101360000E946A08882309F43FC018861F8281E022
:101370008E838FEF8EBD8F8198852FEF05C00DB4C2
:1013800007FEFDCF2EBD019688159905C0F39887FD
:101390008F83D801119720E030E09FEF0BC00DB490
:1013A00007FEFDCF8EB5F701E20FF31F80839EBDD0
:1013B0002F5F3F4F2A173B0790F30DB407FEFDCF79
:1013C0008EB5AE0DBF1D8C932F813885200F311F38
:1013D00038872F838985882319F02050324048F0C0
:1013E000CE010E94970805C0CE010E942A0880E025
:1013F00001C081E0DF91CF911F910F91FF90EF909D
:10140000DF90CF90BF90AF909F908F900895EF9214
:10141000FF920F931F93790120E030E000E012E08B
:101420000E946A091F910F91FF90EF900895CF934A
:10143000DF93EC01DB0180E090E020E2FD01E80FAA
:10144000F91F208301968B309105C1F757E040E0EA
:1014500021C02E3219F083EB90E007C05A3019F109
:101460005AE048E017C03217F1F0FC0101963491C0
:101470003323C9F75417B8F02132A8F02F3798F466
:10148000822F81568A3108F42052FD01E40FF11DAC
:1014900020834F5F29912223E1F690E08C918032E6
:1014A00019F091E001C090E0892FDF91CF9108956C
:1014B0006F927F928F929F92AF92BF92CF92DF9264
:1014C000EF92FF920F931F93CF93DF93EC017A017A
:1014D0008B012D81222309F480C08B899C89AD89E1
:1014E000BE8984179507A607B70708F476C085C09C
:1014F000E114F1040105110549F41E821F821886CA
:1015000019861A861B861C861D8665C02A853B8522
:101510004C855D85EB8DFC8D858590E0099621508D
:1015200030404040504039014A01082E04C0969492
:101530008794779467940A94D2F72F5F3F4F4F4F69
:101540005F4F0894E108F10801091109570168018A
:1015500004C0D694C794B794A7948A95D2F70894F8
:10156000E11CF11C011D111DA614B704C804D90407
:1015700028F0211531054105510549F48F89988DD1
:10158000A98DBA8D8E839F83A887B98716C0A618A8
:10159000B708C808D90811C04E815F816885798570
:1015A0008B8D9C8D94010E949D120894A108B10816
:1015B000C108D108882331F410C086E0882E912C10
:1015C0008C0E9D1EA114B104C104D10429F7EA8632
:1015D000FB860C871D8781E001C080E0DF91CF9101
:1015E0001F910F91FF90EF90DF90CF90BF90AF9041
:1015F0009F908F907F906F900895223009F078CF60
:10160000E6CFCF93DF93EC01462F6E857F858889E7
:1016100099890E94C611882319F420E030E00AC09D
:101620008A89282F30E095E0220F331F9A95E1F741
:1016300023533D4FC901DF91CF9108950F931F931D
:10164000CF93DF938C01FC0185818823D9F18481BC
:1016500087FF35C0C80161E00E94010BEC010097D3
:1016600089F1F8018581823040F483899489A589C4
:10167000B6898C8F9D8FAE8FBF8FF8018789908D33
:101680009B8F8A8F8789908DA18DB28DCD01AA27DE
:10169000BB279D8B8C8BE091CB02F091CC023097D5
:1016A00051F0BE016A5E7F4FCE0148960995888D44
:1016B000998D9B8B8A8BF80184818F7784830E941C
:1016C000671101C080E0DF91CF911F910F910895C4
:1016D000CF93DF93EC010E941E0B882311F01D8233
:1016E00081E0DF91CF9108956F927F928F929F92C8
:1016F000AF92BF92CF92DF92EF92FF920F931F9320
:10170000DF93CF9300D000D0CDB7DEB77C015A0174
:101710006B01DC0115968C911597813009F08FC013
:1017200014968C9181FF8BC09EC00097A105B105D6
:1017300011F481E085C0F701628473848484958408
:10174000C701B601A5010E94580A882309F477C091
:10175000D7015B968D919C915C97A114B104C10453
:10176000D10489F457964D915D916D917C915A9772
:101770000E941013882309F462C0F701178A108EA3
:10178000118E128E3DC0D70116964D915D916D91CF
:101790007C9119979E012F5F3F4F0E949D128823D5
:1017A00009F44DC0D7015B96ED91FC915C9749819E
:1017B0005A816B817C818789803129F088EF9FEF86
:1017C000AFEFBFE004C088EF9FEFA0E0B0E04817A4
:1017D00059076A077B07A0F4CF010E9410138823E2
:1017E00071F1F7014681578160857185838D948DF4
:1017F0000FEF1FEF2FEF3FE00E9401128823F9F057
:10180000D7015396AD92BD92CD92DC925697149625
:101810008C911497806814968C93C7010E941E0BBC
:10182000882369F0B601A5016A147B048C049D0429
:1018300010F4B401A301C7010E94580A01C080E05E
:101840000F900F900F900F90CF91DF911F910F91FC
:10185000FF90EF90DF90CF90BF90AF909F908F90D0
:101860007F906F900895F70183899489A589B6893F
:1018700084179507A607B70708F057CFE0CF2F9238
:101880003F924F925F926F927F928F929F92AF9210
:10189000BF92CF92DF92EF92FF920F931F93CF935D
:1018A000DF93EC012A018D81882309F4C6C08C8165
:1018B00080FFC3C0D8C025014E185F084B0176E0F9
:1018C000272E312C2C0E3D1E3201B1C02A853B85BE
:1018D0004C855D856FEFA62E61E0B62EA222B32265
:1018E0008D8179018A0199E016950795F794E7941F
:1018F0009A95D1F7EB8DFC8D823049F4428D538D52
:10190000648D758D4E0D5F1D601F711F3FC0D480AB
:10191000DA94DE20A114B104D9F4DD20C9F4211534
:1019200031054105510549F48F89988DA98DBA8DEE
:101930008E839F83A887B9870BC04E815F8168859E
:101940007985CF0191010E949D12882309F475C009
:10195000EB8DFC8D4E815F816885798542505040CA
:1019600060407040058404C0440F551F661F771FF8
:101970000A94D2F786859785A089B189480F591FA7
:101980006A1F7B1F4D0D511D611D711D80E092E08E
:101990008A199B0963018615970508F46C018C81EF
:1019A00086FD06C080E0C81682E0D80609F073C044
:1019B00080914A0290914B02A0914C02B0914D024D
:1019C000481759076A077B0709F465C08091CD0461
:1019D0009091CE049501860174010E946A098823C2
:1019E00061F18C0C9D1C12C0950123533D4FA90140
:1019F0004C0D5D1DD401F90102C081918D93E41756
:101A0000F507D9F7E21BF30B8E0E9F1E960140E0FF
:101A100050E08A859B85AC85BD85820F931FA41FEE
:101A2000B51F8A879B87AC87BD876C187D086114BA
:101A3000710409F04BCFA20102C04FEF5FEFCA0162
:101A4000DF91CF911F910F91FF90EF90DF90CF909A
:101A5000BF90AF909F908F907F906F905F904F90CE
:101A60003F902F900895AB88BC88CD88DE88EA84AB
:101A7000FB840C851D859A0140E050E0D601C5012C
:101A80008E199F09A00BB10B82179307A407B50706
:101A900008F411CF13CFCB01BA0140E00E94C61168
:101AA000882309F0A1CFC9CFCF92DF92EF92FF92A6
:101AB0000F931F93DF93CF930F92CDB7DEB76C01D7
:101AC000FC018581823070F0E284F3840485158501
:101AD000C601BE016F5F7F4F41E050E00E943F0CA6
:101AE000019769F020E030E0C9010F90CF91DF91BC
:101AF0001F910F91FF90EF90DF90CF900895F60126
:101B000082859385A485B5854F96A11DB11D8287D9
:101B10009387A487B587F5E016950795F794E79422
:101B2000FA95D1F78E2D8F70282F30E0E5E0220F47
:101B3000331FEA95E1F723533D4FD6CF1F93CF9341
:101B4000DF93EC01142FE62FF0E075E0EE0FFF1F9E
:101B50007A95E1F7E353FD4F8385817121F0842F5E
:101B6000827409F054C06A8B80914A0290914B02B2
:101B7000A0914C02B0914D028E879F87A88BB98BA4
:101B800084899589A0E0B0E0BC0155274427828D67
:101B9000938DA0E0B0E0482B592B6A2B7B2B4F8B09
:101BA000588F698F7A8F838590E088719070009745
:101BB00051F4848D958DA68DB78D8B8B9C8BAD8BC1
:101BC000BE8B81E00CC0409711F59E012D5E3F4F0A
:101BD0008B8D9C8D0E9469138823C9F084E08D83CE
:101BE000812F8F708C831E821F82188619861A8619
:101BF0001B861C861D8616FD02C081E009C0CE0131
:101C000040E050E060E070E00E94740B01C080E0B2
:101C1000DF91CF911F910895CF93DF93EC019C0149
:101C20002A5F3F4F8B8D9C8D41E050E060E070E07B
:101C30000E94D8138823A1F08F89988DA98DBA8D21
:101C40000097A105B10559F48E819F81A885B985BA
:101C50008F8B988FA98FBA8F8C8180688C8381E05D
:101C6000DF91CF9108952F923F924F925F927F9292
:101C70008F929F92AF92BF92CF92DF92EF92FF929C
:101C80000F931F93DF93CF9300D000D000D0CDB738
:101C9000DEB76C01162F072F5E834D83DC0115968E
:101CA0008C911597813009F070C114968C9181FF49
:101CB0006CC18EC1F6014389548965897689828514
:101CC0009385A485B58584179507A607B70731F0D6
:101CD000C6010E94580A882309F457C1812F902F0A
:101CE0009C0129012D803E8017C1D6015B96ED91A4
:101CF000FC915C97DA01C90119E0B695A795979513
:101D000087951A95D1F774807A9478227FEF872E81
:101D100071E0972E82229322772009F04EC0811421
:101D2000910409F04AC0D60116964D915D916D91CE
:101D30007C911997411551056105710581F45796FC
:101D40008D919D910D90BC91A02D0097A105B1059D
:101D500049F1F60186839783A087B1872EC0CF0112
:101D60009E012F5F3F4F0E949D12882309F414C1EA
:101D700029813A814B815C81D6015B96ED91FC9182
:101D80005C978789803129F088EF9FEFAFEFBFE044
:101D900004C088EF9FEFA0E0B0E0281739074A079A
:101DA0005B0730F0C6010E940C0E882331F4EDC0B1
:101DB000F601268337834087518780E092E08819B7
:101DC000990951018215930508F45C01D6015B96CF
:101DD000ED91FC915C971696ED90FD900D911C9104
:101DE00019978EEF9FEFAFEFBFEFE80EF91E0A1FB6
:101DF0001B1F058404C0EE0CFF1C001F111F0A945A
:101E0000D2F786859785A089B189E80EF91E0A1F49
:101E10001B1FE70CF11C011D111D90E0A91692E09B
:101E2000B90651F580914A0290914B02A0914C0263
:101E3000B0914D028E159F05A007B10761F48FEF99
:101E40009FEFAFEFBFEF80934A0290934B02A093B6
:101E50004C02B0934D028091CD049091CE04B80114
:101E6000A70192010E940D09882309F48EC0A0E009
:101E7000B2E04A0E5B1E3EC08114910409F5F601E2
:101E8000228533854485558583899489A589B689BA
:101E9000281739074A075B0798F00E9467118823C3
:101EA00009F473C0E0924A02F0924B0200934C0294
:101EB00010934D028091CF0481608093CF0408C0BD
:101EC000C801B70141E00E94C611882309F45DC032
:101ED000940123533D4FA9014A0D5B1DD201F90125
:101EE00002C08D918193E417F507D9F7E21BF30B3C
:101EF0004E0E5F1E2A183B08950140E050E0F601A7
:101F000082859385A485B585820F931FA41FB51F75
:101F100082879387A487B587D6011A962D913D9124
:101F20004D915C911D972114310409F0DECE53963A
:101F30008D919D910D90BC91A02D82179307A407C0
:101F4000B50748F4F601238B348B458B568B84817F
:101F50008068848311C08091CB029091CC02892B40
:101F600059F08D819E81892B39F0D60114968C9180
:101F70001497806814968C93F601848183FF0EC0B9
:101F8000C6010E941E0B882349F481E090E0D6012F
:101F900013969C938E9312971E821D828D819E8133
:101FA00026960FB6F894DEBF0FBECDBFCF91DF915E
:101FB0001F910F91FF90EF90DF90CF90BF90AF9067
:101FC0009F908F907F905F904F903F902F900895BB
:101FD00082FD70CE83CEDF93CF930F92CDB7DEB765
:101FE0006983BE016F5F7F4F41E050E00E94330E76
:101FF0000F90CF91DF910895DF92EF92FF920F93B0
:102000001F93CF93DF93EC010E940C0E882309F4F9
:102010004EC0EB8DFC8DEE80FF80088519858EEF1C
:102020009FEFAFEFBFEFE80EF91E0A1F1B1F0584DD
:1020300004C0EE0CFF1C001F111F0A94D2F7868506
:102040009785A089B189E80EF91E0A1F1B1FD4804D
:102050000894E108F108010911090BC0C801B70192
:102060006D0D711D811D911D0E94A2118823F9F033
:10207000DA94DD2099F7EB8DFC8D20E032E040E032
:1020800050E0058404C0220F331F441F551F0A94DB
:10209000D2F78B899C89AD89BE89820F931FA41FBB
:1020A000B51F8B8B9C8BAD8BBE8B81E001C080E01C
:1020B000DF91CF911F910F91FF90EF90DF900895E6
:1020C0006F927F928F929F92AF92BF92CF92DF9248
:1020D000EF92FF920F931F93DF93CF93CDB7DEB7AD
:1020E0002B970FB6F894DEBF0FBECDBF5C016B011E
:1020F000822EDC0115968C91882309F0D2C0CA018A
:102100008E010F5F1F4FB8010E94170A882309F440
:10211000C8C0F601838D948DD5015C969C938E93F7
:102120005B971682178210861186D6011A961D9229
:102130001D921D921C921D979924380141C0C60121
:102140000E94540DFC01009709F4ABC085E0169580
:102150000795F794E7948A95D1F71E2D1F7080811B
:10216000882311F0853ED1F4992091F4D50152963F
:102170001C93529720914A0230914B0240914C029D
:1021800050914D021E962D933D934D935C93519724
:102190008081882399F49924939421C0C301BF01BD
:1021A0004BE050E00E945303009751F4882D807358
:1021B000803309F476C0C501612F6FC099249394D0
:1021C000F601E284F3840485158583899489A589C1
:1021D000B689E816F9060A071B0708F4B0CF882D60
:1021E0008271823109F05DC0992041F0C50161E042
:1021F0000E94010B8C01009789F453C0D6011596FB
:102200008C91823009F44DC0C6010E94FC0F8823D6
:1022100009F447C0F501128A0DEC12E080E2D80102
:102220001D928A95E9F7D801FE0131968BE0019065
:102230000D928150E1F7E091CB02F091CC02309702
:1022400039F0B801625F7F4FC8014096099509C017
:1022500081E298E2F801918B808B80E098E097878B
:102260008687D80150968D919C91519753969C9357
:102270008E93529759969C938E9358971E968D9154
:102280009C911F9757969C938E9356970E94671127
:10229000882339F0C501F5016289482D0E949E0D01
:1022A00001C080E02B960FB6F894DEBF0FBECDBF05
:1022B000CF91DF911F910F91FF90EF90DF90CF9022
:1022C000BF90AF909F908F907F906F900895809176
:1022D000CF04882399F140914A0250914B026091BA
:1022E0004C0270914D028091CD049091CE042DEC62
:1022F00032E00E940D09882319F14091D0045091D9
:10230000D1046091D2047091D30441155105610547
:10231000710591F08091CD049091CE042DEC32E0C6
:102320000E940D09882361F01092D0041092D1040C
:102330001092D2041092D3041092CF0481E0089539
:1023400080E00895EF92FF920F931F937B018C0121
:102350000E9467118823A9F0EDECF2E0119284E06D
:10236000ED3CF807D9F7E0924A02F0924B02009355
:102370004C0210934D028091CF0481608093CF0472
:1023800081E01F910F91FF90EF900895DF92EF92FF
:10239000FF920F931F937B018C01D42E80914A02F0
:1023A00090914B02A0914C02B0914D028E159F0569
:1023B000A007B107C1F00E9467118823D9F080916E
:1023C000CD049091CE04B801A7012DEC32E00E941B
:1023D000070A882379F0E0924A02F0924B020093B8
:1023E0004C0210934D028091CF048D298093CF042D
:1023F00081E001C080E01F910F91FF90EF90DF908E
:1024000008954F925F926F927F928F929F92AF92B8
:10241000BF92CF92DF92EF92FF920F931F93CF93D1
:10242000DF93EC016A017B0128013901423051053B
:102430006105710508F46FC089859A85AB85BC85F7
:102440000196A11DB11D84179507A607B70708F4CB
:1024500062C02B893C894D895E898F89803129F43E
:1024600099278F2D7E2D6D2D09C0C701B60117E06C
:1024700096958795779567951A95D1F74B015C01ED
:10248000820E931EA41EB51E80914A0290914B02AB
:10249000A0914C02B0914D0288169906AA06BB067F
:1024A00039F0C501B40140E00E94C611882399F1BA
:1024B0008F89803149F4F601F070EE0FFF1FE3536E
:1024C000FD4F518240820DC0F601EF77F070EE0FA4
:1024D000FF1FEE0FFF1FE353FD4F408251826282C8
:1024E00073828091CF0481608093CF048A89823087
:1024F00080F08D819E81AF81B885880E991EAA1EBD
:10250000BB1E8092D0049092D104A092D204B092CB
:10251000D30481E001C080E0DF91CF911F910F9142
:10252000FF90EF90DF90CF90BF90AF909F908F90F3
:102530007F906F905F904F900895CF92DF92EF92CF
:10254000FF920F931F93CF93DF93EC017A018B01DE
:10255000690189859A85AB85BC850196A11DB11D50
:1025600084179507A607B70708F450C02B893C8944
:102570004D895E898F89803129F49927812F702FA9
:102580006F2D09C0C801B701E7E09695879577954B
:102590006795EA95D1F7260F371F481F591F80917D
:1025A0004A0290914B02A0914C02B0914D02281723
:1025B00039074A075B0739F0CA01B90140E00E94B8
:1025C000C611882319F18F89803159F4F701F07011
:1025D000EE0FFF1FE353FD4F80819181A0E0B0E03B
:1025E0000EC0F701EF77F070EE0FFF1FEE0FFF1F29
:1025F000E353FD4F80819181A281B381BF70F601C9
:1026000080839183A283B38381E001C080E0DF9166
:10261000CF911F910F91FF90EF90DF90CF90089591
:10262000AF92BF92CF92DF92EF92FF920F931F93E0
:10263000DF93CF9300D000D0CDB7DEB76C017A0125
:102640008B0182E090E0A0E0B0E0F601808391830E
:10265000A283B3835E010894A11CB11CC601B8011A
:10266000A70195010E949D12882319F1C601B801A6
:10267000A70100E010E020E030E00E940112882372
:10268000C1F0E980FA800B811C81F60187898031D5
:1026900029F088EF9FEFAFEFBFE004C088EF9FEF16
:1026A000A0E0B0E0E816F9060A071B07B8F281E0DF
:1026B00001C080E00F900F900F900F90CF91DF91AD
:1026C0001F910F91FF90EF90DF90CF90BF90AF9050
:1026D00008954F925F926F927F928F929F92AF92E6
:1026E000BF92CF92DF92EF92FF920F931F93DF93EF
:1026F000CF9300D000D0CDB7DEB76C0149835A83A9
:102700006B837C833901EE24FF2487012E0108941A
:10271000411C511C812CA2E09A2EA12CB12C498184
:102720005A816B817C81C60192010E949D1288238F
:1027300051F1D501C401F601058404C0880F991F29
:10274000AA1FBB1F0A94D2F7E80EF91E0A1F1B1F0F
:1027500029813A814B815C818789803129F088EF1A
:102760009FEFAFEFBFE004C088EF9FEFA0E0B0E0C5
:10277000281739074A075B0790F2F301E082F182DC
:102780000283138381E00F900F900F900F90CF91F1
:10279000DF911F910F91FF90EF90DF90CF90BF904E
:1027A000AF909F908F907F906F905F904F90089523
:1027B0002F923F924F925F926F927F928F929F9251
:1027C000AF92BF92CF92DF92EF92FF920F931F933F
:1027D000DF93CF93CDB7DEB72F970FB6F894DEBF58
:1027E0000FBECDBF1C014A875B876C877D873F8703
:1027F0002E87D9010D911D912D913C910115110547
:102800002105310549F0480159010894811C911CAA
:10281000A11CB11C198610C0FC0180809180A2808F
:10282000B38019868A859B85AC85BD850197A105F6
:10283000B10511F491E09987D10119968D919D917F
:102840000D90BC91A02D0196A11DB11D8D839E837D
:10285000AF83B887750164014424552432018E0189
:102860000F5F1F4FF10181859285A385B4854816BE
:1028700059066A067B0608F090C08D819E81AF8163
:10288000B8858C159D05AE05BF0550F482E0882EF5
:10289000912CA12CB12CB2E0CB2ED12CE12CF12C1F
:1028A000C101B701A60198010E949D12882309F475
:1028B00074C089819A81AB81BC81A70196012F5F89
:1028C0003F4F4F4F5F4F0097A105B10519F04901E8
:1028D0005A010DC0281939094A095B098A859B8567
:1028E000AC85BD85281739074A075B0759F008945E
:1028F000411C511C611C711C0894C11CD11CE11CA1
:10290000F11CB0CFC101A601B7010FEF1FEF2FEFF0
:102910003FE00E940112882399F43FC0260137014D
:1029200008944108510861087108C101B301A2016E
:10293000970186010E940112882379F173016201D7
:102940008C149D04AE04BF0448F3AE85BF854D9141
:102950005D916D917C91411551056105710539F0CD
:10296000C101950184010E9401128823B1F0EE8516
:10297000FF8580829182A282B382F985FF2359F07C
:102980000894811C911CA11CB11CD1018D929D92B7
:10299000AD92BC92139781E001C080E02F960FB6F4
:1029A000F894DEBF0FBECDBFCF91DF911F910F9185
:1029B000FF90EF90DF90CF90BF90AF909F908F905F
:1029C0007F906F905F904F903F902F9008958091EF
:1029D0008C0590918D05A0918E05B0918F05809307
:1029E000A0059093A105A093A205B093A3058091A3
:1029F000940590919505A0919605B09197058093C7
:102A0000A4059093A505A093A605B093A705809172
:102A10009C0590919D05A0919E05B0919F05809386
:102A2000A8059093A905A093AA05B093AB050895B6
:102A30000E94F62820E0892B09F021E0822F0895DA
:102A4000CF92DF92EF92FF920F931F93CF93DF937A
:102A5000EB01E216F3060407150761F00E94181552
:102A6000882391F0C114D10479F404C080E0CD280A
:102A700011F40FC080E0DF91CF911F910F91FF9073
:102A8000EF90DF90CF900895CE010E941815882313
:102A900069F781E0F0CFCF92DF92EF92FF920F9330
:102AA0001F932091DC043091DD044091DE045091AD
:102AB000DF04E090E804F090E9040091EA0410914A
:102AC000EB04C0905702D090580280E190E063E19F
:102AD00070E00E9420151F910F91FF90EF90DF9002
:102AE000CF900895CF92DF92EF92FF920F931F93B2
:102AF0002091D8043091D9044091DA045091DB043C
:102B0000E090E404F090E5040091E6041091E704FD
:102B1000C0905502D09056028FE090E062E170E0E4
:102B20000E9420151F910F91FF90EF90DF90CF90A2
:102B30000895CF92DF92EF92FF920F931F9320910F
:102B4000D4043091D5044091D6045091D704E0903C
:102B5000E004F090E1040091E2041091E304C090DD
:102B60005302D09054028EE090E061E170E00E9448
:102B700020151F910F91FF90EF90DF90CF90089557
:102B8000EF92FF920F931F937B018C0120E030E0C6
:102B900040E050E00E94232A882329F42CE231E00F
:102BA00040E050E04EC0C801B7012091A805309127
:102BB000A9054091AA055091AB050E94292C0E94BD
:102BC000922A0E94C52A9B01AC0160E070E080E877
:102BD0009FE30E942A2A20E030E040E752E40E946E
:102BE000292C20E034E244E759E40E94292C7B019F
:102BF0008C0184E396E068E171E00E949C2684E306
:102C000096E0B801A70122E030E00E943A27C8010F
:102C1000B70120E030E046E953E40E94232A8823EC
:102C200054F40F2EF0E0EF2EF0E0FF2EF6E90F2F18
:102C3000F3E41F2FF02DC801B7010E94922A9B01D7
:102C4000AC01B901CA011F910F91FF90EF90089557
:102C50000E94C0150E94C52A6093F8047093F9047D
:102C60008093FA049093FB0408956F3F2FE372075B
:102C700020E0820720E092075CF028EE33E040E09D
:102C800050E00E943C2DCA01B9010E94C527089559
:102C9000CB010E941E280895682F809357029093BD
:102CA000580284E00E94A2280895809355029093D0
:102CB000560261E0682783E00E94A228089580936D
:102CC00053029093540261E0682782E00E94A22898
:102CD000089560E070E02091E0043091E1044091BB
:102CE000E2045091E3048091D4049091D504A09122
:102CF000D604B091D70482179307A407B50714F43C
:102D000061E070E0CB010E945F1660E070E020910E
:102D1000E4043091E5044091E6045091E704809189
:102D2000D8049091D904A091DA04B091DB04821701
:102D30009307A407B50714F461E070E0CB010E948B
:102D4000551660E070E02091E8043091E90440916C
:102D5000EA045091EB048091DC049091DD04A09191
:102D6000DE04B091DF0482179307A407B50714F4BB
:102D700061E070E0CB010E944C1608952091E004C0
:102D80003091E1044091E2045091E3048091D40435
:102D90009091D504A091D604B091D704281B390B8B
:102DA0004A0B5B0B2093EC043093ED044093EE044C
:102DB0005093EF0457FF0FC088279927DC01821B2F
:102DC000930BA40BB50B8093EC049093ED04A093AC
:102DD000EE04B093EF042091E4043091E5044091B7
:102DE000E6045091E7048091D8049091D904A09111
:102DF000DA04B091DB04281B390B4A0B5B0B2093E0
:102E0000F0043093F1044093F2045093F30457FF1D
:102E10000FC088279927DC01821B930BA40BB50BED
:102E20008093F0049093F104A093F204B093F30420
:102E30002091E8043091E9044091EA045091EB04B8
:102E40008091DC049091DD04A091DE04B091DF0458
:102E5000281B390B4A0B5B0B2093F4043093F504C9
:102E60004093F6045093F70457FF0FC08827992723
:102E7000DC01821B930BA40BB50B8093F40490939D
:102E8000F504A093F604B093F7040E946916089520
:102E900080918C0590918D05A0918E05B0918F0544
:102EA0008093A0059093A105A093A205B093A305DC
:102EB0008091940590919505A0919605B091970504
:102EC0008093A4059093A505A093A605B093A705AC
:102ED00080919C0590919D05A0919E05B0919F05C4
:102EE0008093A8059093A905A093AA05B093AB057C
:102EF00080E090E0A0E0BFE380934F029093500207
:102F0000A0935102B09352020E94BE160895809180
:102F1000880590918905A0918A05B0918B058093D1
:102F2000A0059093A105A093A205B093A30580915D
:102F3000900590919105A0919205B0919305809391
:102F4000A4059093A505A093A605B093A70580912D
:102F5000980590919905A0919A05B0919B05809351
:102F6000A8059093A905A093AA05B093AB0580E7A7
:102F700092E4A1EABCE380934F0290935002A093A5
:102F80005102B09352020E94BE160895AF92BF92B2
:102F9000CF92DF92EF92FF920F931F9359016A0134
:102FA0002091A0053091A1054091A2055091A30563
:102FB0000E94292C0E94922A6093D4047093D50415
:102FC0008093D6049093D704C601B5012091A4053F
:102FD0003091A5054091A6055091A7050E94292C86
:102FE0000E94922A6093D8047093D9048093DA04E3
:102FF0009093DB04C801B7012091A8053091A90581
:103000004091AA055091AB050E94292C0E94922A5A
:103010006093DC047093DD048093DE049093DF04FE
:103020000E94BE161F910F91FF90EF90DF90CF90FE
:10303000BF90AF900895AF92BF92CF92DF92EF9280
:10304000FF920F931F9359016A012091A0053091BF
:10305000A1054091A2055091A3050E94292C0E9430
:10306000922A6093E0047093E1048093E2049093C9
:10307000E304C601B5012091A4053091A505409156
:10308000A6055091A7050E94292C0E94922A6093C0
:10309000E4047093E5048093E6049093E704C80188
:1030A000B7012091A8053091A9054091AA0550913A
:1030B000AB050E94292C0E94922A6093E804709329
:1030C000E9048093EA049093EB040E94BE161F91DA
:1030D0000F91FF90EF90DF90CF90BF90AF90089549
:1030E0001F93182F61E00E94A228812F60E00E94A8
:1030F000A22885E090E00E941E281F9108953F922B
:103100004F925F926F927F928F929F92AF92BF92F7
:10311000CF92DF92EF92FF920F931F932091EC04D6
:103120003091ED044091EE045091EF046091F00471
:103130007091F1048091F2049091F3046217730787
:103140008407950714F4CA01B9012091F404309161
:10315000F5044091F6045091F70462177307840751
:10316000950714F4CA01B90160938405709385052D
:10317000809386059093870522E030E040E050E0A0
:103180000E943C2DEE24FF248701E21AF30A040B6F
:10319000150B37014801570168010E949915382E17
:1031A0000E947215482E0E944B15582E332009F4A8
:1031B00046C08091EC049091ED04A091EE04B09192
:1031C000EF04E80EF91E0A1F1B1F1E141F04100631
:1031D0001106ACF585E090E00E947018809184059E
:1031E00090918505A0918605B0918705E81AF90AA6
:1031F0000A0B1B0B8091530290915402892B61F0B2
:103200008091D4049091D504A091D604B091D704B4
:103210000196A11DB11D0BC08091D4049091D504DD
:10322000A091D604B091D7040197A109B109809368
:10323000D4049093D504A093D604B093D70444202B
:1032400009F446C08091F0049091F104A091F20439
:10325000B091F304680E791E8A1E9B1E1614170483
:1032600018041904ACF586E090E00E947018809173
:10327000840590918505A0918605B0918705681A0F
:10328000790A8A0A9B0A8091550290915602892BED
:1032900061F08091D8049091D904A091DA04B091A2
:1032A000DB040196A11DB11D0BC08091D804909143
:1032B000D904A091DA04B091DB040197A109B10906
:1032C0008093D8049093D904A093DA04B093DB04DC
:1032D000552009F446C08091F4049091F504A09122
:1032E000F604B091F704A80EB91ECA1EDB1E1A140C
:1032F0001B041C041D04ACF587E090E00E947018CC
:103300008091840590918505A0918605B0918705EF
:10331000A81AB90ACA0ADB0A80915702909158028A
:10332000892B61F08091DC049091DD04A091DE0492
:10333000B091DF040196A11DB11D0BC08091DC048A
:103340009091DD04A091DE04B091DF040197A10902
:10335000B1098093DC049093DD04A093DE04B09364
:10336000DF046091F8047091F9048091FA0490915F
:10337000FB040E94922A0E943516332009F00DCFDB
:10338000442009F00ACF552009F007CF0E94BE164D
:103390001F910F91FF90EF90DF90CF90BF90AF9073
:1033A0009F908F907F906F905F904F903F90089587
:1033B000EF92FF920F931F930E941B180E94BE165C
:1033C0000E947F181F910F91FF90EF9008952F9208
:1033D0003F924F925F926F927F928F929F92AF92A5
:1033E000BF92CF92DF92EF92FF920F931F93DF93E2
:1033F000CF93CDB7DEB768970FB6F894DEBF0FBE98
:10340000CDBF6D877E878F87988B298B3A8B4B8BAF
:103410005C8B6091D4047091D5048091D604909116
:10342000D7040E94C52A2091A0053091A1054091A2
:10343000A2055091A3050E942A2A2D853E854F851D
:1034400058890E9449291B012C016091D804709170
:10345000D9048091DA049091DB040E94C52A20915E
:10346000A4053091A5054091A6055091A7050E949D
:103470002A2A29893A894B895C890E9449293B017A
:103480004C01C601B5012D853E854F8558890E94A6
:1034900049295B016C016DA57EA58FA598A9298995
:1034A0003A894B895C890E9449297B018C012DA9AD
:1034B000222371F0C8019501A6010E94BD296987E8
:1034C0007A878B879C87C401B301A20191010EC04A
:1034D000C401B301A20191010E94BD2969877A87C5
:1034E0008B879C87B701C8019501A6010E94BD2961
:1034F0007B018C0129853A854B855C850E94232AB6
:10350000181654F0C801B7012BED3FE049EC50E428
:103510000E944A297B018C01C801B70129853A859F
:103520004B855C850E9449296D837E838F839887B4
:10353000C201B101A20191010E94292C7B018C01E1
:10354000C401B301A40193010E94292C9B01AC0189
:10355000C801B7010E944A290E94962C1B012C0128
:103560002D813E814F8158850E94292C20914F0248
:103570003091500240915102509152020E942A2AE9
:103580000E94102A0E94922A7C836B8381E090E043
:103590009A838983CB01AA2797FDA095BA2F8D8B9B
:1035A0009E8BAF8BB88F72C09DA9992319F4298186
:1035B0003A8106C02B813C81A981BA812A1B3B0B31
:1035C000B901882777FD8095982F0E94C52A7B0135
:1035D0008C016D897E898F89988D0E94C52A9B01F7
:1035E000AC01C801B7010E942A2A9B01AC016D8180
:1035F0007E818F8198850E94292C9B01AC01698571
:103600007A858B859C850E944A297B018C01C801A3
:103610000E94272A3B014C01B701C8010E948C2C53
:103620005B016C01C201B101A40193010E94292C2C
:103630009B01AC016D857E858F8598890E944A2902
:103640007B018C01C201B101A60195010E94292CC8
:103650009B01AC0169897A898B899C890E944A29DE
:103660009B01AC01C801B7010F2EF0E0EF2EF0E096
:10367000FF2EF0E00F2FF0E01F2FF02D0E94D81941
:1036800029813A812F5F3F4F3A83298389819A812B
:10369000AB81BC81A817B9070CF086CF68960FB62E
:1036A000F894DEBF0FBECDBFCF91DF911F910F9178
:1036B000FF90EF90DF90CF90BF90AF909F908F9052
:1036C0007F906F905F904F903F902F900895EF9272
:1036D000FF920F931F9320E030E041E656E42093E1
:1036E00088053093890540938A0550938B0587E7B9
:1036F0009BEBADE0B4E480938C0590938D05A09393
:103700008E05B0938F0520939005309391054093DB
:103710009205509393058093940590939505A093FB
:103720009605B0939705209398053093990540939B
:103730009A0550939B0580939C0590939D05A093BB
:103740009E05B0939F0585E061E00E94632882E0BA
:1037500061E00E9463288EE060E00E94632881E1BE
:1037600060E00E94632886E061E00E94632883E0B5
:1037700061E00E9463288FE060E00E94632882E19C
:1037800060E00E94632887E061E00E94632884E093
:1037900061E00E94632880E160E00E94632883E189
:1037A00060E00E9463280E94481760E070E080E0BB
:1037B00090E09B01AC017B018C010E94C6170E9426
:1037C000BE1680E090E0A6E9B3E48093F8049093FD
:1037D000F904A093FA04B093FB041F910F91FF909A
:1037E000EF900895DF93CF93CDB7DEB72A970FB64A
:1037F000F894DEBF0FBECDBF282F19821A821B821C
:103800001C82FE01359686E0DF011D928A95E9F75C
:1038100090E024C0E60FF71F80819F5F8217F1F4CC
:10382000DE0111969E01255F3F4F09C0E60FF71F8D
:103830008081882361F0803251F08D939F5FE92F62
:10384000F0E0E417F5071CF4A217B30779F7CE01EF
:10385000019660E070E00E94DB0109C0E92FF0E012
:10386000E417F507BCF260E070E080E090E02A9693
:103870000FB6F894DEBF0FBECDBFCF91DF91089594
:103880002F923F924F925F926F927F928F929F9270
:10389000AF92BF92CF92DF92EF92FF920F931F935E
:1038A000DF93CF93CDB7DEB763970FB6F894DEBF43
:1038B0000FBECDBF3C012B01DC018C918F3209F48E
:1038C000DAC28B3309F4D7C2833209F4D4C26091CF
:1038D000D4047091D5048091D6049091D7040E94AD
:1038E000C52A2091A0053091A1054091A2055091D3
:1038F000A3050E942A2A69837A838B839C83609123
:10390000D8047091D9048091DA049091DB040E946C
:10391000C52A2091A4053091A5054091A605509196
:10392000A7050E942A2A6D837E838F8398876091E2
:10393000DC047091DD048091DE049091DF040E942C
:10394000C52A2091A8053091A9054091AA0550915A
:10395000AB050E942A2A7B018C0190E006C0E60D8F
:10396000F71D8081883579F09F5FE92FF0E0E4153D
:10397000F505ACF3B981BA87EA81EB87FB81FC8757
:103980002C812D8709C088E5B301A2010E94F21B9A
:103990006A877B878C879D8790E006C0E60DF71DC0
:1039A0008081893561F09F5FE92FF0E0E415F5052E
:1039B000ACF38D803E802F804885498709C089E51A
:1039C000B301A2010E94F21B862E372E282E998762
:1039D00090E006C0E60DF71D80818A3559F09F5FA3
:1039E000E92FF0E0E415F505ACF3EE86FF86088BD1
:1039F000198B09C08AE5B301A2010E94F21B6E87F0
:103A00007F87888B998B80914E02882389F588E582
:103A1000B301A2010E94F21B9B01AC0169817A8172
:103A20008B819C810E944A296A877B878C879D872E
:103A300089E5B301A2010E94F21B9B01AC016D81DB
:103A40007E818F8198850E944A29862E372E282EC6
:103A5000998788E5B301A2010E94F21B9B01AC018A
:103A6000C801B7010E944A296E877F87888B998B8E
:103A70002A853B854C855D85B901CA01A22DB98592
:103A8000282D332DAD01EE85FF85D888C9887F01AB
:103A90000D2D1C2D0E941B1886E4B301A2010E946B
:103AA000F21B7B018C0120E030E040E050E00E94FE
:103AB0001E2C181644F4E092FC04F092FD040093CE
:103AC000FE041093FF0490E006C0E60DF71D808110
:103AD000883541F19F5FE92FF0E0E415F505ACF37F
:103AE00090E006C0E60DF71D80818935D9F09F5F13
:103AF000E92FF0E0E415F505ACF390E006C0E60D23
:103B0000F71D80818A3571F09F5FE92FF0E0E415A1
:103B1000F505ACF321C0E60DF71D80818734E1F097
:103B20009F5F01C090E0E92FF0E0E415F5059CF3FC
:103B30002A853B854C855D85B901CA01A22DB985D1
:103B4000282D332DAD01EE85FF85D888C9887F01EA
:103B50000D2D1C2D0E94D81990E006C0E60DF71D12
:103B60008081873439F09F5FE92FF0E0E415F50597
:103B7000ACF336C187E4B301A2010E94F21B0E949C
:103B8000922A962E54E1651709F4E3C0561798F06F
:103B9000A3E0A61758F0B2E06B1708F054C06623F4
:103BA00031F1E1E06E1709F015C12EC0F4E06F1796
:103BB00009F010C1B6C02EE1621709F4D0C0261773
:103BC00048F045E1641709F4C7C05CE1651709F0E6
:103BD00001C1E5C08BE5981609F4EEC09CE5991685
:103BE00009F4EDC0AAE59A1609F0F4C0E1C080E03E
:103BF00090E0A6E9B3E48093F8049093F904A093CD
:103C0000FA04B093FB040AC06091FC047091FD04B7
:103C10008091FE049091FF040E9428162A853B851E
:103C20004C855D85B901CA01A22DB985282D332D9A
:103C3000AD01EE85FF85D888C9887F010D2D1C2D2B
:103C40000E94D819CDC089E4B301A2010E94F21BE1
:103C50005B016C018AE4B301A2010E94F21B7B01AB
:103C60008C01EDB7FEB739970FB6F894FEBF0FBEC3
:103C7000EDBF4DB75EB74F5F5F4F5B8B4A8BC601A1
:103C8000B50129813A814B815C810E944A295B01FF
:103C90006C01C801B7012D813E814F8158850E947A
:103CA0004A297B018C01282D332D422D5985C901CC
:103CB000DA01EA89FB8980839183A283B3832E850D
:103CC0003F8548895989C901DA01EA89FB898483DA
:103CD0009583A683B78380E0F2E09F1609F481E024
:103CE000AA89BB8918968C93C601B501A8019701D2
:103CF000EE85FF85D888C9887F010D2D1C2DEA85AA
:103D0000FB859C848D845F01C92CD82C0E94E71907
:103D1000EDB7FEB739960FB6F894FEBF0FBEEDBFF4
:103D20005FC080E5B301A2010E94F21B0E94922AAB
:103D300028EE33E0AB01249FB001259F700D349F26
:103D4000700D1124882777FD8095982F0E94C52734
:103D500047C00E94871744C00E94481741C080E0B6
:103D600090E0A6E9B3E48093F8049093F904A0935B
:103D7000FA04B093FB042A853B854C855D85B90127
:103D8000CA01A22DB985282D332DAD01EE85FF8501
:103D9000D888C9887F010D2D1C2D0E94D81960E09C
:103DA00070E080E090E09B01AC017B018C0148CF8A
:103DB00081E080934E0214C010924E0211C060E068
:103DC00070E080E090E09B01AC017B018C010E94DF
:103DD000C61706C084E396E060E271E00E949C266C
:103DE00090E006C0E60DF71D8081863439F09F5FB4
:103DF000E92FF0E0E415F505ACF311C086E4B3015A
:103E0000A2010E94F21B7B018C010E942816E09205
:103E1000FC04F092FD040093FE041093FF0490E074
:103E200006C0E60DF71D80818D3439F09F5FE92FC4
:103E3000F0E0E415F505ACF318C08DE4B301A20180
:103E40000E94F21B0E94972A7B018C01662369F075
:103E500084E396E067E271E00E949C2684E396E0AA
:103E60006E2D4AE050E00E941F2684E396E06EE249
:103E700071E00E944D2763960FB6F894DEBF0FBE27
:103E8000CDBFCF91DF911F910F91FF90EF90DF9009
:103E9000CF90BF90AF909F908F907F906F905F90EA
:103EA0004F903F902F900895BC0184E396E00E94CC
:103EB0004D270895AF92BF92CF92DF92EF92FF927B
:103EC0000F931F9380E090E00E945F1681E391E0E2
:103ED0000E94541F08C085E090E00E9470188CE298
:103EE00091E00E941E288EE00E94F628892B99F30B
:103EF0006091D8047091D9048091DA049091DB0428
:103F00000E94C52A2091A4053091A5054091A605DF
:103F10005091A7050E942A2A5B016C016091DC0484
:103F20007091DD048091DE049091DF040E94C52A27
:103F30002091A8053091A9054091AA055091AB05A3
:103F40000E942A2A7B018C0160E070E080E090E012
:103F5000A60195010E94D8196091D8047091D904E6
:103F60008091DA049091DB040E94C52A2091A40577
:103F70003091A5054091A6055091A7050E942A2AD7
:103F80005B016C016091DC047091DD048091DE04C2
:103F90009091DF040E94C52A2091A8053091A905BF
:103FA0004091AA055091AB050E942A2A7B018C0101
:103FB00060E070E080E090E0A60195010E94C617E5
:103FC00082E491E00E94541F1F910F91FF90EF90A7
:103FD000DF90CF90BF90AF900895AF92BF92CF92F5
:103FE000DF92EF92FF920F931F9380E090E00E9488
:103FF00055168DE491E00E94541F08C086E090E0C1
:104000000E9470188CE291E00E941E288FE00E94AE
:10401000F628892B99F36091D4047091D50480918E
:10402000D6049091D7040E94C52A2091A005309112
:10403000A1054091A2055091A3050E942A2A5B0187
:104040006C016091DC047091DD048091DE0490913C
:10405000DF040E94C52A2091A8053091A90540914E
:10406000AA055091AB050E942A2A7B018C01C6014A
:10407000B50120E030E040E050E00E94D8196091A6
:10408000D4047091D5048091D6049091D7040E94F5
:10409000C52A2091A0053091A1054091A20550911B
:1040A000A3050E942A2A5B016C016091DC047091D7
:1040B000DD048091DE049091DF040E94C52A2091E6
:1040C000A8053091A9054091AA055091AB050E9421
:1040D0002A2A7B018C01C601B50120E030E040E0D6
:1040E00050E00E94C6178EE591E00E94541F1F9178
:1040F0000F91FF90EF90DF90CF90BF90AF90089519
:10410000EF92FF920F931F9380E090E00E944C1675
:1041100089E691E00E94541F08C087E090E00E9469
:1041200070188CE291E00E941E2880E10E94F6281F
:10413000892B99F36091D4047091D5048091D604B1
:104140009091D7040E94C52A2091A0053091A10525
:104150004091A2055091A3050E942A2A7B018C015F
:104160006091D8047091D9048091DA049091DB04B5
:104170000E94C52A2091A4053091A5054091A6056D
:104180005091A7050E942A2A9B01AC01C801B701E2
:104190000F2EF0E0EF2EF0E0FF2EF0E00F2FF0E01A
:1041A0001F2FF02D0E94D8196091D4047091D5046E
:1041B0008091D6049091D7040E94C52A2091A00531
:1041C0003091A1054091A2055091A3050E942A2A91
:1041D0007B018C016091D8047091D9048091DA043C
:1041E0009091DB040E94C52A2091A4053091A50579
:1041F0004091A6055091A7050E942A2A9B01AC0177
:10420000C801B7010F2EF0E0EF2EF0E0FF2EF0EE28
:104210000F2FF1E41F2FF02D0E94C6178AE791E0BF
:104220000E94541F1F910F91FF90EF900895EF92FD
:10423000FF920F931F9360E070E080E192E420E032
:1042400030E047ED53E40F2EF0E0EF2EF0E0FF2ECC
:10425000F0E20F2FF2E41F2FF02D0E94D8190E94D8
:10426000802060E070E080E192E420E030E047ED03
:1042700053E40F2EF0E0EF2EF0E0FF2EF0EE0F2FC4
:10428000F1E41F2FF02D0E94C61760E070E080E17E
:1042900092E420E030E047ED53E40F2EF0E0EF2E03
:1042A000F0E0FF2EF8EE0F2FF1E41F2FF02D0E940B
:1042B000D8191F910F91FF90EF900895EF92FF9200
:1042C0000F931F9381E090E00E944C1685E891E0E7
:1042D0000E94541F08C087E090E00E9470188CE292
:1042E00091E00E941E2883E10E94F628892B99F311
:1042F0006091D4047091D5048091D6049091D70434
:104300000E94C52A2091A0053091A1054091A205E7
:104310005091A3050E942A2A7B018C016091D80448
:104320007091D9048091DA049091DB040E94C52A2F
:104330002091A4053091A5054091A6055091A705AF
:104340000E942A2A9B01AC01C801B7010F2EF0E0A0
:10435000EF2EF0E0FF2EF0E20F2FF2E41F2FF02DF2
:104360000E94D8196091D4047091D5048091D6042C
:104370009091D7040E94C52A2091A0053091A105F3
:104380004091A2055091A3050E942A2A7B018C012D
:104390006091D8047091D9048091DA049091DB0483
:1043A0000E94C52A2091A4053091A5054091A6053B
:1043B0005091A7050E942A2A9B01AC01C801B701B0
:1043C0000F2EF0E0EF2EF0E0FF2EF0E20F2FF2E4E0
:1043D0001F2FF02D0E94C6178AE791E00E94541FFC
:1043E0001F910F91FF90EF9008950E945E210E940F
:1043F000ED1F0E945A1F0895EF92FF920F931F9393
:10440000CF93DF937C018B01C0E0D0E0C7010E9415
:10441000E403F801EC0FFD1F8A3019F41082CE017D
:1044200005C080832196C038D10581F7DF91CF91F7
:104430001F910F91FF90EF9008952F923F924F920E
:104440005F926F927F928F929F92AF92BF92CF9224
:10445000DF92EF92FF920F931F93DF93CF93CDB72D
:10446000DEB7C65BD0400FB6F894DEBF0FBECDBF3F
:104470007C0182E892E066E971E00E94B40588233D
:1044800079F484E396E060EA71E00E949C2684E37C
:1044900096E066E971E00E944D27EE24FF246FC08C
:1044A0008E010F5F1F4FC80162E872E0A70121E093
:1044B0000E94DD06C8010E94CF03882331F084E307
:1044C00096E066E971E00E944D27EE24FF244E013C
:1044D0000894811C911C4DE5242E42E0342E38E2D4
:1044E000432E512C4C0E5D1E2DE0622E712C6C0E55
:1044F0007D1E9CE1A92EB12CAC0EBD1E87E3C82EFB
:10450000D12CCC0EDD1E33C00894E11CF11C8B8134
:104510009C819F8F8E8F8D819E81AF81B88588A36E
:1045200099A3AAA3BBA389859A85AB85BC858CA3D7
:104530009DA3AEA3BFA33D8E2C8ED201F3018DE0CF
:1045400001900D928150E1F78A8D9B8D9EAB8DABD2
:10455000C501B6010E94FC218C01C5010E948D039A
:10456000C6010E94541FC601B8010E94401CC4012C
:104570000E94AB03892B41F6C4010E948D03C70141
:10458000CA54DF4F0FB6F894DEBF0FBECDBFCF9138
:10459000DF911F910F91FF90EF90DF90CF90BF9030
:1045A000AF909F908F907F906F905F904F903F90D3
:1045B0002F90089584E396E00E9459241816190656
:1045C000CCF484E396E00E948A24282F109283057D
:1045D000109282058A30D9F08091800590918105F2
:1045E000FC01E050FB4F208301969093810580935E
:1045F00080050DC08091820590918305019690936E
:1046000083058093820584E690E00E941E286091D5
:104610008005709181056115710569F02A3039F0C6
:1046200080918205909183058536910524F080E084
:1046300095E00E94401C0895EF92FF920F931F9304
:1046400004E316E0C80140E855E260E070E00E9433
:10465000D3238DE092E00E94541F0E94671B83E1E8
:1046600092E00E94541F0E94F52181E292E00E9494
:10467000541F0E94172186E991E00E941D227C01AF
:10468000C8016AE272E00E949C26C801B7014AE0B4
:1046900050E00E947D261F910F91FF90EF900895AA
:1046A00008951F920F920FB60F9211242F933F93EC
:1046B0004F938F939F93EF93FF934091C600209168
:1046C000EC053091ED052F5F3F4F2F7330708091D7
:1046D000EE059091EF052817390759F0E091EC05A8
:1046E000F091ED05E455FA4F40833093ED052093AA
:1046F000EC05FF91EF919F918F914F913F912F91F9
:104700000F900FBE0F901F901895E0914006F0910A
:104710004106E05CFF4F8191919120813181821BA4
:10472000930B8F739070892B11F00E945023089582
:104730001F920F920FB60F9211242F933F938F93D6
:104740009F93EF93FF932091300630913106809133
:104750003206909133062817390731F48091C10051
:104760008F7D8093C10014C0E0913206F091330632
:10477000E051FA4F208180913206909133060196E4
:104780008F73907090933306809332062093C60007
:10479000FF91EF919F918F913F912F910F900FBEBD
:1047A0000F901F901895AF92BF92DF92EF92FF92F9
:1047B0000F931F93CF93DF93EC017A018B01DD24DC
:1047C000403081EE580780E0680780E0780711F0FC
:1047D000DD24D39491E0A92EB12CEC89FD89DD2054
:1047E00069F0C5010E8C02C0880F991F0A94E2F788
:1047F000808360E079E08DE390E005C0108260E89E
:1048000074E88EE190E0A80197010E941A2D2150D2
:10481000304040405040569547953795279580E168
:104820002030380720F0DD2011F0DD24D6CFE889D4
:10483000F9893083EA89FB892083EE89FF894081E9
:1048400021E030E0C9010A8C02C0880F991F0A9448
:10485000E2F7482B4083EE89FF894081C9010B8C28
:1048600002C0880F991F0A94E2F7482B4083EE8913
:10487000FF894081C9010C8C02C0880F991F0A94DE
:10488000E2F7482B4083EE89FF8980810D8C02C0BE
:10489000220F331F0A94E2F7209528232083DF910B
:1048A000CF911F910F91FF90EF90DF90BF90AF904D
:1048B0000895DC011C96ED91FC911D97E05CFF4F83
:1048C0002191319180819181281B390B2F73307098
:1048D000C9010895DC011C96ED91FC911D97E05CE7
:1048E000FF4F20813181E054F040DF01AE5BBF4FCC
:1048F0008D919C9111972817390719F42FEF3FEFED
:1049000007C08D919C91E80FF91F8081282F30E01E
:10491000C9010895DC011C96ED91FC911D97E05CA6
:10492000FF4F20813181E054F040DF01AE5BBF4F8B
:104930008D919C9111972817390719F42FEF3FEFAC
:1049400010C08D919C911197E80FF91F20818D91D6
:104950009C91119701968F73907011969C938E93F2
:1049600030E0C9010895FC0186859785DC01A05CD3
:10497000BF4FFC01EE5BFF4F2D913C911197808161
:10498000918128173907C1F70895CF93DF93EC0180
:10499000EE85FF85E05CFF4F20813181E054F040DF
:1049A0002F5F3F4F2F733070DF01AE5BBF4F8D9194
:1049B0009C91119728173907D1F3E05CFF4F808154
:1049C0009181E054F040E80FF91F6083EE85FF8588
:1049D000E05CFF4F31832083EE89FF89208181E0F5
:1049E00090E00D8C02C0880F991F0A94E2F7282BE3
:1049F000208381E090E0DF91CF91089510923706F7
:104A00001092360688EE93E0A0E0B0E0809338067E
:104A100090933906A0933A06B0933B0685E792E05F
:104A200090933506809334068CEA95E09093410686
:104A30008093400680EF95E0909343068093420672
:104A400085EC90E0909345068093440684EC90E0DA
:104A5000909347068093460680EC90E09093490639
:104A60008093480681EC90E090934B0680934A0631
:104A700086EC90E090934D0680934C0684E0809302
:104A80004E0683E080934F0687E08093500685E0D2
:104A90008093510681E0809352060895CF92DF9271
:104AA000EF92FF920F931F93CF93DF937C016B01E3
:104AB0008A01C0E0D0E00FC0D6016D916D01D70131
:104AC000ED91FC910190F081E02DC7010995C80F8F
:104AD000D91F015010400115110571F7CE01DF916A
:104AE000CF911F910F91FF90EF90DF90CF9008959D
:104AF000EF92FF920F931F938C01DC01ED91FC91DB
:104B00000190F081E02D6DE009957C01D801ED91D7
:104B1000FC910190F081E02DC8016AE009959C01AB
:104B20002E0D3F1DC9011F910F91FF90EF90089529
:104B3000CF93DF93DB010D900020E9F71197A61BBF
:104B4000B70BEC01E881F9810280F381E02DAD0122
:104B50000995DF91CF9108954F925F927F928F9246
:104B60009F92AF92BF92CF92DF92EF92FF920F93FC
:104B70001F93DF93CF93CDB7DEB7A1970FB6F8940D
:104B8000DEBF0FBECDBF2C01742ECB01223008F446
:104B90002AE019A231E2C32ED12CCC0EDD1E822ECA
:104BA0009924AA24BB24672D752FA50194010E9486
:104BB0001A2D79018A01C801B701A50194010E944B
:104BC000FB2C472D461B0894C108D1084A3014F429
:104BD000405D01C0495CF6014083E114F104010528
:104BE000110521F07E2C5F2DC801DDCFC201B60179
:104BF0000E949825A1960FB6F894DEBF0FBECDBFD8
:104C0000CF91DF911F910F91FF90EF90DF90CF90A8
:104C1000BF90AF909F908F907F905F904F9008953E
:104C2000DC012115310541F4ED91FC910190F081F9
:104C3000E02D642F099508950E94AC250895CF9228
:104C4000DF92EF92FF920F931F936C01E62E9A0171
:104C5000FF2400E010E0B801A7010E9410268C019B
:104C6000C6010E947825080F191FC8011F910F91D6
:104C7000FF90EF90DF90CF900895CF92DF92EF9268
:104C8000FF920F931F93CF93DF93EC016A017B0197
:104C90002115310541F4E881F9810190F081E02D81
:104CA000642F09951FC02A303105D1F477FF17C052
:104CB000E881F9810190F081E02D6DE209958C0188
:104CC00044275527BA014C195D096E097F09CE01A9
:104CD0002AE00E94AC259801280F391F04C02AE061
:104CE0000E94AC259C01C901DF91CF911F910F91CA
:104CF000FF90EF90DF90CF900895CF92DF92EF92E8
:104D0000FF920F931F936C017B019A010027F7FC20
:104D10000095102FB801A7010E943D268C01C60105
:104D20000E947825080F191FC8011F910F91FF904D
:104D3000EF90DF90CF9008950E94982508957F927C
:104D40008F929F92AF92BF92CF92DF92EF92FF929B
:104D50000F931F93CF93DF934C017A018B01722E37
:104D6000CB01BA0120E030E040E050E00E94232A6D
:104D700087FD03C0C0E0D0E00EC0D401ED91FC91EE
:104D80000190F081E02DC4016DE20995EC0117FB63
:104D9000109517F9109520E030E040E05FE3AA2479
:104DA0000BC0CA01B90120E030E040E251E40E94AA
:104DB0002A2A9B01AC01A394A71498F3C801B70158
:104DC0000E944A295B016C010E94972A7B018C0199
:104DD000C401B801A7012AE030E00E941026C80FE4
:104DE000D91F772039F0C40162E472E00E9498254F
:104DF000C80FD91FC801B7010E94C32A9B01AC018B
:104E0000C601B5010E94492924C020E030E040E2FB
:104E100051E40E94292C7B018C010E94922A5B01A3
:104E20006C01CC24B7FCC094DC2CC401B601A501F4
:104E30002AE030E00E943D26C80FD91FC601B50107
:104E40000E94C52A9B01AC01C801B7010E944929F3
:104E50007A947720D1F6CE01DF91CF911F910F91F7
:104E6000FF90EF90DF90CF90BF90AF909F908F908A
:104E70007F900895EF92FF920F931F937C010E9401
:104E80009F268C01C7010E947825080F191FC801B1
:104E90001F910F91FF90EF900895EF92FF920F9363
:104EA0001F937C010E9498258C01C7010E947825E0
:104EB000080F191FC8011F910F91FF90EF900895DF
:104EC000CF93DF930E9428280E941C23C5E8D3E2D9
:104ED0000E94DA222097E1F30E948523F9CF1F92E6
:104EE0000F920FB60F9211242F933F938F939F939E
:104EF000AF93BF938091570690915806A0915906A1
:104F0000B0915A0630915B060196A11DB11D232F69
:104F10002D5F2D3720F02D570196A11DB11D209337
:104F20005B068093570690935806A0935906B0935A
:104F30005A068091530690915406A0915506B0915F
:104F400056060196A11DB11D8093530690935406F9
:104F5000A0935506B0935606BF91AF919F918F9144
:104F60003F912F910F900FBE0F901F9018958FB704
:104F7000F894209157063091580640915906509167
:104F80005A068FBFB901CA0108959B01AC017FB7D2
:104F9000F8948091530690915406A0915506B091D3
:104FA000560666B5A89B05C06F3F19F00196A11D76
:104FB000B11D7FBFBA2FA92F982F8827860F911D6B
:104FC000A11DB11D62E0880F991FAA1FBB1F6A9522
:104FD000D1F7BC012DC0FFB7F89480915306909192
:104FE0005406A0915506B0915606E6B5A89B05C09B
:104FF000EF3F19F00196A11DB11DFFBFBA2FA92FD8
:10500000982F88278E0F911DA11DB11DE2E0880FFA
:10501000991FAA1FBB1FEA95D1F7861B970B885EC5
:105020009340C8F2215030404040504068517C4F7E
:10503000211531054105510571F60895019739F0A3
:10504000880F991F880F991F02970197F1F708950C
:10505000789484B5826084BD84B5816084BD85B553
:10506000826085BD85B5816085BDEEE6F0E080811A
:1050700081608083E1E8F0E010828081826080833B
:10508000808181608083E0E8F0E0808181608083BE
:10509000E1EBF0E0808184608083E0EBF0E08081F0
:1050A00081608083EAE7F0E0808184608083808192
:1050B000826080838081816080838081806880833A
:1050C0001092C1000895CF93DF93482F50E0CA019A
:1050D0008B509F4FFC0134914F515F4FFA018491E7
:1050E000882369F190E0880F991FFC01ED53FF4F71
:1050F000A591B491FC01E353FF4FC591D491662370
:1051000051F42FB7F8948C91932F909589238C9319
:10511000888189230BC0623061F42FB7F8948C9199
:10512000932F909589238C938881832B88832FBF1D
:1051300006C09FB7F8948C91832B8C939FBFDF910F
:10514000CF910895482F50E0CA01875F9E4FFC0120
:105150002491CA018B509F4FFC0194914F515F4F96
:10516000FA013491332309F440C0222351F1233052
:1051700071F0243028F42130A1F0223011F514C050
:105180002630B1F02730C1F02430D9F404C080912A
:1051900080008F7703C0809180008F7D8093800096
:1051A00010C084B58F7702C084B58F7D84BD09C0DF
:1051B0008091B0008F7703C08091B0008F7D809385
:1051C000B000E32FF0E0EE0FFF1FE353FF4FA59178
:1051D000B4912FB7F894662321F48C91909589238C
:1051E00002C08C91892B8C932FBF0895682F70E09B
:1051F000CB01875F9E4FFC012491CB018B509F4FC9
:10520000FC0144916F517F4FFB019491992319F454
:1052100020E030E03CC0222351F1233071F02430F3
:1052200028F42130A1F0223011F514C02630B1F05D
:105230002730C1F02430D9F404C0809180008F77EA
:1052400003C0809180008F7D8093800010C084B562
:105250008F7702C084B58F7D84BD09C08091B00076
:105260008F7703C08091B0008F7D8093B000892F2D
:1052700090E0880F991F89529F4FFC01A591B4912E
:105280008C9120E030E0842311F021E030E0C9016E
:1052900008955058BB27AA270ED06EC22ED230F0E8
:1052A00033D220F031F49F3F11F41EF4FEC10EF40E
:1052B000E095E7FBC9C1E92F81D280F3BA176207F5
:1052C00073078407950718F071F49EF5B0C20EF4C9
:1052D000E0950B2EBA2FA02D0B01B90190010C0106
:1052E000CA01A0011124FF27591B99F0593F50F41E
:1052F000503E68F11A16F040A22F232F342F442776
:10530000585FF3CF469537952795A795F04053956D
:10531000C9F77EF41F16BA0B620B730B840BBAF03D
:105320009150A1F0FF0FBB1F661F771F881FC2F7A8
:105330000EC0BA0F621F731F841F48F487957795BC
:105340006795B795F7959E3F08F0B3CF9395880F73
:1053500008F09927EE0F979587950895CED158F0CC
:1053600080E891E009F49EEFCFD128F040E851E0C9
:1053700059F45EEF09C099C15AC2E92FE0781ED2F4
:1053800068F3092E052AC1F326173707480759077E
:1053900038F00E2E07F8E02569F0E025E0640AC039
:1053A000EF6307F8009407FADB01B9019D01DC0106
:1053B000CA01AD01EF935DD0DFD10AD05F915523D3
:1053C00031F02BED3FE049E450FD49EC63CF089507
:1053D000DF93DD27B92FBF7740E85FE31616170686
:1053E00048075B0710F4D92F2DD29F938F937F939B
:1053F0006F93E6D2E8E6F0E05BD1BED12F913F910A
:105400004F915F9132D2DD2349F09058A2EA2AED04
:105410003FE049EC5FE3D0785D274DDFDF91ACC121
:10542000EFD180F09F3740F491110EF401C260E09B
:1054300070E080E89FE3089526F01B16611D711D42
:10544000811D08C122C1DCD008F481E0089564D137
:10545000E395A3C10CD090C157D140F04ED130F0AC
:1054600021F45F3F19F0F0C05111E2C11EC1A6D175
:1054700098F39923C9F35523B1F3951B550BBB271B
:10548000AA2762177307840738F09F5F5F4F220FC8
:10549000331F441FAA1FA9F333D00E2E3AF0E0E8C1
:1054A00030D091505040E695001CCAF729D0FE2F0D
:1054B00027D0660F771F881FBB1F2617370748079F
:1054C000AB07B0E809F0BB0B802DBF01FF27935855
:1054D0005F4F2AF09E3F510568F0B6C0A9C15F3FFB
:1054E000ECF3983EDCF3869577956795B795F7953D
:1054F0009F5FC9F7880F911D9695879597F9089535
:10550000E1E0660F771F881FBB1F621773078407D0
:10551000BA0720F0621B730B840BBA0BEE1F88F7DF
:10552000E095089504D06894B11182C108954ED1D8
:1055300088F09F5790F0B92F9927B751A0F0D1F07C
:10554000660F771F881F991F1AF0BA95C9F712C006
:10555000B13081F06CD1B1E0089569C1672F782F27
:105560008827B85F39F0B93FCCF386957795679572
:10557000B395D9F73EF490958095709561957F4FDE
:105580008F4F9F4F0895E89409C097FB3EF4909584
:105590008095709561957F4F8F4F9F4F9923A9F00C
:1055A000F92F96E9BB279395F6958795779567959B
:1055B000B795F111F8CFFAF4BB0F11F460FF1BC0DF
:1055C0006F5F7F4F8F4F9F4F16C0882311F096E972
:1055D00011C0772321F09EE8872F762F05C0662320
:1055E00071F096E8862F70E060E02AF09A95660FD9
:1055F000771F881FDAF7880F9695879597F9089592
:10560000990F0008550FAA0BE0E8FEEF16161706D3
:10561000E807F907C0F012161306E407F50798F03B
:10562000621B730B840B950B39F40A2661F0232B54
:10563000242B252B21F408950A2609F4A140A695D0
:105640008FEF811D811D089597F99F6780E870E0B5
:1056500060E00895882371F4772321F09850872B18
:10566000762F07C0662311F499270DC09051862B21
:1056700070E060E02AF09A95660F771F881FDAF7CE
:10568000880F9695879597F908959F3F49F0915017
:1056900028F4869577956795B7959F5F80389F4FDB
:1056A000880F9695879597F908959FEF80EC089558
:1056B000DF93CF931F930F93FF92EF92DF927B01C3
:1056C0008C01689405C0DA2EEF01CFD0FE01E8947A
:1056D000A5912591359145915591AEF3EF01EBDD03
:1056E000FE019701A801DA9479F7DF90EF90FF901F
:1056F0000F911F91CF91DF91089500240A941616FF
:10570000170618060906089500240A9412161306AF
:10571000140605060895C9CF59D0E8F3E894EFEFD1
:10572000BB273FE048EC5FE76B3D730784079507B5
:1057300008F1FF279F57B25A6A4D7F40894CF040CD
:1057400032F4BE556542704F8643FF4F0894EE1FFA
:10575000915030F0BB0F661F771F881FFF1FEBCFE4
:105760009EE7882332F0BB0F661F771F881F9A952C
:10577000C1F79395E09589CF092E0394000C11F49D
:10578000882352F0BB0F40F4BF2B11F460FF04C01C
:105790006F5F7F4F8F4F9F4F0895EF93E0FF06C0DD
:1057A000A2EA2AED3FE049EC5FEB85DDE5DF0F90F3
:1057B000039401FC9058E5E9F0E00CC157FD9058C6
:1057C000440F551F59F05F3F71F04795880F97FBC5
:1057D000991F61F09F3F79F087950895121613067F
:1057E0001406551FF2CF4695F1DF08C016161706AE
:1057F0001806991FF1CF86957105610508940895E3
:10580000E5DFA0F0BEE7B91788F4BB279F3860F446
:105810001616B11D672F782F8827985FF7CF8695CA
:1058200077956795B11D93959639C8F30895E894D7
:10583000BB2766277727CB0197F90895E1DE08F4A7
:105840008FEF08959B01AC0160E070E080E89FE37A
:1058500001CE0BD091CF51DF28F056DF18F0952301
:1058600009F0F2CE22CF1124E3CFA8DFA0F3959F59
:10587000D1F3950F50E0551F629FF001729FBB2737
:10588000F00DB11D639FAA27F00DB11DAA1F649FE3
:105890006627B00DA11D661F829F2227B00DA11D96
:1058A000621F739FB00DA11D621F839FA00D611D1C
:1058B000221F749F3327A00D611D231F849F600D3D
:1058C000211D822F762F6A2F11249F5750408AF076
:1058D000E1F088234AF0EE0FFF1FBB1F661F771F02
:1058E000881F91505040A9F79E3F510570F0ACCEF3
:1058F0009FCF5F3FECF3983EDCF3869577956795F5
:10590000B795F795E7959F5FC1F7FE2B880F911D1F
:105910009695879597F908959F93FEDE0F9007FC63
:10592000EE5F3BCF11F40EF4C0CEAFCE4FDFD0F31D
:105930009923D9F3CEF39F57550B87FF44D0569543
:105940009795B0E020F4660F771F881FBB1F1F9349
:105950000F9300249001A0018001F001A0E80E0F38
:105960001F1F0A1E511D601B710B8009B50B48F4E7
:10597000600F711F801DB51F0E1B1F0B0A0A5109F6
:1059800007C02E0F3F1F4A1F0E0F1F1F0A1E511D5B
:10599000660F771F881FBB1FA695F795E795F8F64A
:1059A0000617170708065B07211D311D411D0F91C2
:1059B0001F91B901842F9158880F96958795089566
:1059C0009B01AC0146CF91505040660F771F881F56
:1059D000D2F708959F938F937F936F93FF93EF93E5
:1059E0009B01AC0136DFEF91FF9162DE2F913F9179
:1059F0004F915F912ECF629FD001739FF001829FE4
:105A0000E00DF11D649FE00DF11D929FF00D839F4D
:105A1000F00D749FF00D659FF00D9927729FB00DEA
:105A2000E11DF91F639FB00DE11DF91FBD01CF01FD
:105A300011240895A1E21A2EAA1BBB1BFD010DC063
:105A4000AA1FBB1FEE1FFF1FA217B307E407F5072E
:105A500020F0A21BB30BE40BF50B661F771F881F0A
:105A6000991F1A9469F760957095809590959B01A0
:105A7000AC01BD01CF01089597FB092E05260ED07C
:105A800057FD04D0D7DF0AD0001C38F4509540955C
:105A9000309521953F4F4F4F5F4F0895F6F7909502
:105AA0008095709561957F4F8F4F9F4F0895EE0FB2
:105AB000FF1F0590F491E02D0994911106C08032EA
:105AC00019F089508550D0F70895992788270895AF
:105AD0002F923F924F925F926F927F928F929F92FE
