:100000000C9463000C948B000C948B000C948B006C
:100010000C948B000C948B000C948B000C948B0034
:100020000C948B000C948B000C948B000C948B0024
:100030000C948B000C948B000C948B000C948B0014
:100040000C940C0A0C948B000C945C080C94A30880
:100050000C948B000C948B000C948B000C948B00F4
:100060000C948B000C948B000000000024002700EF
:100070002A0000000000250028002B0000000000DE
:1000800023002600290004040404040404040202DA
:100090000202020203030303030301020408102007
:1000A0004080010204081020010204081020000012
:1000B0000007000201000003040600000000000029
:1000C00000008D00830911241FBECFEFD8E0DEBFF2
:1000D000CDBF11E0A0E0B1E0E2EFF5E102C0059094
:1000E0000D92AC31B107D9F714E0ACE1B1E001C039
:1000F0001D92AE31B107E1F710E0C6ECD0E004C0CC
:100100002297FE010E94F30AC23CD107C9F70E9460
:10011000FD090C94F70A0C94000010922101109232
:100120002201109225011092270182E090E0A0E0C8
:10013000B0E08093280190932901A0932A01B09305
:100140002B0110923F01109249011092480188E062
:1001500091E0909347018093460110924B010895DE
:10016000FF920F931F93CF93DF938B010E94540A4A
:10017000EB01FF24FA94FEBC0DB407FEFDCF8EB553
:100180008F3F11F481E008C00E94540A6C1B7D0B64
:100190006017710780F380E0DF91CF911F910F917D
:1001A000FF900895FC01848160E00E949D0A0895FB
:1001B000FC01848161E00E949D0A0895DC016EBD0E
:1001C000FA0120E030E00DB407FEFDCF80818EBD46
:1001D0000DB407FEFDCF81818EBD2E5F3F4F32965D
:1001E00082E02030380779F70DB407FEFDCF8FEF9E
:1001F0008EBD0DB407FEFDCF8FEF8EBD0DB407FE93
:10020000FDCF8FEF8EBD0DB407FEFDCF8EB51A96D4
:100210008C931A978F71853011F481E0089581E1F4
:1002200015968C931597CD010E94D80080E0089513
:10023000FF920F931F93CF93DF93EC010E94540A18
:100240008B01FF24FA9409C00E94540A601B710BB1
:100250006D52714010F08FE00DC0FEBC0DB407FE72
:10026000FDCF8EB58A878F3F79F38E3F11F481E001
:1002700006C08DE08D83CE010E94D80080E0DF9122
:10028000CF911F910F91FF900895CF93DF93EC01D1
:100290008E818823D1F08FEF8EBD2F8138854FEF6F
:1002A00004C00DB407FEFDCF4EBD2F5F3F4FC90107
:1002B000019781509240A8F338872F830DB407FE31
:1002C000FDCFCE010E94D8001E82DF91CF9108950C
:1002D000DF92EF92FF920F931F93CF93DF93EC0186
:1002E000D62E79018A010E944501CE010E94D200DA
:1002F000CE016CE271E00E94B0008D2D80648EBD55
:100300000DB407FEFDCF28E130E0D801C701022E71
:1003100004C0B695A795979587950A94D2F78EBD98
:100320000DB407FEFDCF285030408FEF283F38072F
:1003300061F7DD2011F485E906C088E0D81611F4D4
:1003400087E801C08FEF8EBD0DB407FEFDCF90E0B2
:100350002FEF2EBD0DB407FEFDCF8EB587FF02C077
:100360009150B9F78A87DF91CF911F910F91FF903C
:10037000EF90DF900895CF92DF92EF92FF920F936C
:100380001F93CF93DF93EC017A018B016901411533
:1003900051056105710511F482E137C08B85833009
:1003A00039F029E0EE0CFF1C001F111F2A95D1F730
:1003B000CE0168E1A80197010E946801882311F02D
:1003C00084E023C0CE016EEFA6010E94DE008823E8
:1003D000E9F0CE0168E572E00E94B000882311F4D4
:1003E00085E113C0CE016DE020E030E040E050E058
:1003F0000E946801882341F48FEF8EBD0DB407FE83
:10040000FDCF8EB5882379F084E18D83CE010E94E3
:10041000D80080E0DF91CF911F910F91FF90EF9076
:10042000DF90CF900895CE010E94D80081E0F2CFF6
:100430008F929F92AF92BF92CF92DF92EF92FF92F4
:100440000F931F93CF93DF93EC015A016B01490186
:100450000115110509F47BC0C801820F931F81505B
:10046000924008F06FC08E81882371F08881998155
:10047000AA81BB81481759076A077B0729F48F8136
:1004800098858816990618F5A882B982CA82DB82F7
:100490008B85833039F069E0AA0CBB1CCC1CDD1CB9
:1004A0006A95D1F7CE0161E1A60195010E9468012C
:1004B000882319F083E08D8345C0CE010E94180186
:1004C000882309F43FC018861F8281E08E838FEF56
:1004D0008EBD8F8198852FEF05C00DB407FEFDCF2F
:1004E0002EBD019688159905C0F398878F83D80192
:1004F000119720E030E09FEF0BC00DB407FEFDCF59
:100500008EB5F701E20FF31F80839EBD2F5F3F4F33
:100510002A173B0790F30DB407FEFDCF8EB5AE0D45
:10052000BF1D8C932F813885200F311F38872F8373
:100530008985882319F02050324048F0CE010E946E
:10054000450105C0CE010E94D80080E001C081E0D5
:10055000DF91CF911F910F91FF90EF90DF90CF909F
:10056000BF90AF909F908F900895EF92FF920F935E
:100570001F93790120E030E000E012E00E941802B1
:100580001F910F91FF90EF9008956F927F928F923D
:100590009F92AF92BF92CF92DF92EF92FF920F9312
:1005A0001F93CF93DF93EC017A018B012D812223DE
:1005B00009F480C08B899C89AD89BE898417950711
:1005C000A607B70708F476C085C0E114F104010559
:1005D000110549F41E821F82188619861A861B8609
:1005E0001C861D8665C02A853B854C855D85EB8D07
:1005F000FC8D858590E00996215030404040504068
:1006000039014A01082E04C0969487947794679420
:100610000A94D2F72F5F3F4F4F4F5F4F0894E10886
:10062000F108010911095701680104C0D694C79463
:10063000B794A7948A95D2F70894E11CF11C011D88
:10064000111DA614B704C804D90428F021153105DA
:100650004105510549F48F89988DA98DBA8D8E83F6
:100660009F83A887B98716C0A618B708C808D908F5
:1006700011C04E815F81688579858B8D9C8D940139
:100680000E94D7060894A108B108C108D1088823A0
:1006900031F410C086E0882E912C8C0E9D1EA11482
:1006A000B104C104D10429F7EA86FB860C871D87B3
:1006B00081E001C080E0DF91CF911F910F91FF9009
:1006C000EF90DF90CF90BF90AF909F908F907F90F2
:1006D0006F900895223009F078CFE6CFCF93DF9363
:1006E000EC01462F6E857F85888999890E940006D6
:1006F000882319F420E030E00AC08A89282F30E0EE
:1007000095E0220F331F9A95E1F729593E4FC90111
:10071000DF91CF9108950F931F93CF93DF938C01B7
:10072000FC0185818823D9F1848187FF35C0C80108
:1007300061E00E946E03EC01009789F1F801858168
:10074000823040F483899489A589B6898C8F9D8FE6
:10075000AE8FBF8FF8018789908D9B8F8A8F878995
:10076000908DA18DB28DCD01AA27BB279D8B8C8B3F
:10077000E0916501F0916601309751F0BE016A5E2B
:100780007F4FCE0148960995888D998D9B8B8A8BDA
:10079000F80184818F7784830E94C50501C080E0C1
:1007A000DF91CF911F910F910895CF93DF93EC01CB
:1007B0009C012A5F3F4F8B8D9C8D41E050E060E0B3
:1007C00070E00E944A078823A1F08F89988DA98D37
:1007D000BA8D0097A105B10559F48E819F81A88536
:1007E000B9858F8B988FA98FBA8F8C8180688C8305
:1007F00081E0DF91CF9108952F923F924F925F92C7
:100800007F928F929F92AF92BF92CF92DF92EF92A0
:10081000FF920F931F93DF93CF9300D000D000D0AF
:10082000CDB7DEB76C01162F072F5E834D83DC0139
:1008300015968C911597813009F070C114968C91A2
:1008400081FF6CC18EC1F60143895489658976891F
:1008500082859385A485B58584179507A607B70774
:1008600031F0C6010E94C502882309F457C1812FC7
:10087000902F9C0129012D803E8017C1D6015B96E7
:10088000ED91FC915C97DA01C90119E0B695A79545
:10089000979587951A95D1F774807A9478227FEF8F
:1008A000872E71E0972E82229322772009F04EC086
:1008B0008114910409F04AC0D60116964D915D91BC
:1008C0006D917C911997411551056105710581F470
:1008D00057968D919D910D90BC91A02D0097A105EB
:1008E000B10549F1F60186839783A087B1872EC0B1
:1008F000CF019E012F5F3F4F0E94D706882309F446
:1009000014C129813A814B815C81D6015B96ED91BE
:10091000FC915C978789803129F088EF9FEFAFEFDA
:10092000BFE004C088EF9FEFA0E0B0E028173907D0
:100930004A075B0730F0C6010E94D503882331F4D3
:10094000EDC0F601268337834087518780E092E02F
:100950008819990951018215930508F45C01D601A3
:100960005B96ED91FC915C971696ED90FD900D9144
:100970001C9119978EEF9FEFAFEFBFEFE80EF91EB6
:100980000A1F1B1F058404C0EE0CFF1C001F111F53
:100990000A94D2F786859785A089B189E80EF91E59
:1009A0000A1F1B1FE70CF11C011D111D90E0A91669
:1009B00092E0B90651F58091000190910101A0915A
:1009C0000201B09103018E159F05A007B10761F4E4
:1009D0008FEF9FEFAFEFBFEF809300019093010186
:1009E000A0930201B0930301809167039091680383
:1009F000B801A70192010E94BB01882309F48EC0AF
:100A0000A0E0B2E04A0E5B1E3EC08114910409F5DD
:100A1000F601228533854485558583899489A58986
:100A2000B689281739074A075B0798F00E94C50561
:100A3000882309F473C0E0920001F0920101009351
:100A4000020110930301809169038160809369031F
:100A500008C0C801B70141E00E940006882309F4DC
:100A60005DC0940129593E4FA9014A0D5B1DD20179
:100A7000F90102C08D918193E417F507D9F7E21BC4
:100A8000F30B4E0E5F1E2A183B08950140E050E024
:100A9000F60182859385A485B585820F931FA41FD7
:100AA000B51F82879387A487B587D6011A962D91A3
:100AB0003D914D915C911D972114310409F0DECEDA
:100AC00053968D919D910D90BC91A02D8217930707
:100AD000A407B50748F4F601238B348B458B568B5E
:100AE00084818068848311C0809165019091660142
:100AF000892B59F08D819E81892B39F0D60114966E
:100B00008C911497806814968C93F601848183FFEE
:100B10000EC0C6010E948B03882349F481E090E057
:100B2000D60113969C938E9312971E821D828D81FF
:100B30009E8126960FB6F894DEBF0FBECDBFCF9133
:100B4000DF911F910F91FF90EF90DF90CF90BF90BA
:100B5000AF909F908F907F905F904F903F902F909D
:100B6000089582FD70CE83CEDF93CF930F92CDB7E1
:100B7000DEB76983BE016F5F7F4F41E050E00E94A6
:100B8000FC030F90CF91DF91089580916903882332
:100B900099F1409100015091010160910201709121
:100BA0000301809167039091680327E631E00E947A
:100BB000BB01882319F140916A0350916B03609146
:100BC0006C0370916D03411551056105710591F03C
:100BD000809167039091680327E631E00E94BB0192
:100BE000882361F010926A0310926B0310926C03D9
:100BF00010926D031092690381E0089580E00895DA
:100C0000DF92EF92FF920F931F937B018C01D42E02
:100C10008091000190910101A0910201B091030126
:100C20008E159F05A007B107C1F00E94C505882356
:100C3000D9F08091670390916803B801A70127E676
:100C400031E00E94B502882379F0E0920001F09231
:100C500001010093020110930301809169038D2922
:100C60008093690381E001C080E01F910F91FF90A4
:100C7000EF90DF9008954F925F926F927F928F92E4
:100C80009F92AF92BF92CF92DF92EF92FF920F931B
:100C90001F93CF93DF93EC016A017B012801390197
:100CA000423051056105710508F46FC089859A8548
:100CB000AB85BC850196A11DB11D84179507A607BC
:100CC000B70708F462C02B893C894D895E898F89FA
:100CD000803129F499278F2D7E2D6D2D09C0C701F4
:100CE000B60117E096958795779567951A95D1F790
:100CF0004B015C01820E931EA41EB51E8091000163
:100D000090910101A0910201B0910301881699060A
:100D1000AA06BB0639F0C501B40140E00E940006F6
:100D2000882399F18F89803149F4F601F070EE0F34
:100D3000FF1FE959FE4F518240820DC0F601EF7747
:100D4000F070EE0FFF1FEE0FFF1FE959FE4F4082BC
:100D5000518262827382809169038160809369030A
:100D60008A89823080F08D819E81AF81B885880E1E
:100D7000991EAA1EBB1E80926A0390926B03A092DA
:100D80006C03B0926D0381E001C080E0DF91CF91F0
:100D90001F910F91FF90EF90DF90CF90BF90AF9099
:100DA0009F908F907F906F905F904F900895CF921B
:100DB000DF92EF92FF920F931F93CF93DF93EC019B
:100DC0007A018B01690189859A85AB85BC8501967D
:100DD000A11DB11D84179507A607B70708F450C0D9
:100DE0002B893C894D895E898F89803129F4992727
:100DF000812F702F6F2D09C0C801B701E7E09695CC
:100E0000879577956795EA95D1F7260F371F481F85
:100E1000591F8091000190910101A0910201B091B0
:100E20000301281739074A075B0739F0CA01B901DE
:100E300040E00E940006882319F18F89803159F41F
:100E4000F701F070EE0FFF1FE959FE4F808191818D
:100E5000A0E0B0E00EC0F701EF77F070EE0FFF1FDB
:100E6000EE0FFF1FE959FE4F80819181A281B3816E
:100E7000BF70F60180839183A283B38381E001C0B8
:100E800080E0DF91CF911F910F91FF90EF90DF9065
:100E9000CF9008952F923F924F925F926F927F92E0
:100EA0008F929F92AF92BF92CF92DF92EF92FF927A
:100EB0000F931F93DF93CF93CDB7DEB72F970FB666
:100EC000F894DEBF0FBECDBF1C014A875B876C87DD
:100ED0007D873F872E87D9010D911D912D913C91E2
:100EE000011511052105310549F048015901089402
:100EF000811C911CA11CB11C198610C0FC018080B2
:100F00009180A280B38019868A859B85AC85BD853A
:100F10000197A105B10511F491E09987D1011996C6
:100F20008D919D910D90BC91A02D0196A11DB11D9B
:100F30008D839E83AF83B887750164014424552453
:100F400032018E010F5F1F4FF10181859285A385CC
:100F5000B485481659066A067B0608F090C08D8154
:100F60009E81AF81B8858C159D05AE05BF0550F4F7
:100F700082E0882E912CA12CB12CB2E0CB2ED12C6A
:100F8000E12CF12CC101B701A60198010E94D706FE
:100F9000882309F474C089819A81AB81BC81A7013F
:100FA00096012F5F3F4F4F4F5F4F0097A105B1054F
:100FB00019F049015A010DC0281939094A095B097C
:100FC0008A859B85AC85BD85281739074A075B074D
:100FD00059F00894411C511C611C711C0894C11CDF
:100FE000D11CE11CF11CB0CFC101A601B7010FEF6C
:100FF0001FEF2FEF3FE00E943B06882399F43FC08C
:101000002601370108944108510861087108C1019F
:10101000B301A201970186010E943B06882379F162
:10102000730162018C149D04AE04BF0448F3AE85C5
:10103000BF854D915D916D917C9141155105610583
:10104000710539F0C101950184010E943B06882396
:10105000B1F0EE85FF8580829182A282B382F9850C
:10106000FF2359F00894811C911CA11CB11CD101D3
:101070008D929D92AD92BC92139781E001C080E069
:101080002F960FB6F894DEBF0FBECDBFCF91DF9184
:101090001F910F91FF90EF90DF90CF90BF90AF9096
:1010A0009F908F907F906F905F904F903F902F9088
:1010B00008950895089508951F920F920FB60F9204
:1010C00011242F933F934F938F939F93EF93FF930D
:1010D0004091C6002091AE033091AF032F5F3F4F88
:1010E0002F7330708091B0039091B10328173907A6
:1010F00059F0E091AE03F091AF03E259FC4F408309
:101100003093AF032093AE03FF91EF919F918F91A6
:101110004F913F912F910F900FBE0F901F901895F8
:10112000E0910204F0910304E05CFF4F8191919102
:1011300020813181821B930B8F739070892B11F06A
:101140000E945B0808951F920F920FB60F92112410
:101150002F933F938F939F93EF93FF932091F203ED
:101160003091F3038091F4039091F5032817390728
:1011700031F48091C1008F7D8093C10014C0E09153
:10118000F403F091F503EE54FC4F20818091F403B9
:101190009091F50301968F7390709093F50380936F
:1011A000F4032093C600FF91EF919F918F913F919F
:1011B0002F910F900FBE0F901F901895DC011C9679
:1011C000ED91FC911D97E05CFF4F21913191808161
:1011D0009181281B390B2F733070C9010895DC01F0
:1011E0001C96ED91FC911D97E05CFF4F20813181B1
:1011F000E054F040DF01AE5BBF4F8D919C911197A1
:101200002817390719F42FEF3FEF07C08D919C91F4
:10121000E80FF91F8081282F30E0C9010895DC0113
:101220001C96ED91FC911D97E05CFF4F2081318170
:10123000E054F040DF01AE5BBF4F8D919C91119760
:101240002817390719F42FEF3FEF10C08D919C91AB
:101250001197E80FF91F20818D919C9111970196AC
:101260008F73907011969C938E9330E0C90108950E
:10127000FC0186859785DC01A05CBF4FFC01EE5B1D
:10128000FF4F2D913C91119780819181281739074B
:10129000C1F70895CF93DF93EC01EE85FF85E05C05
:1012A000FF4F20813181E054F0402F5F3F4F2F737B
:1012B0003070DF01AE5BBF4F8D919C911197281765
:1012C0003907D1F3E05CFF4F80819181E054F04019
:1012D000E80FF91F6083EE85FF85E05CFF4F3183E7
:1012E0002083EE89FF89208181E090E00D8C02C08F
:1012F000880F991F0A94E2F7282B208381E090E061
:10130000DF91CF9108951092F9031092F80388EEBF
:1013100093E0A0E0B0E08093FA039093FB03A093E6
:10132000FC03B093FD0380E191E09093F703809379
:10133000F6038EE693E0909303048093020482EB1D
:1013400093E0909305048093040485EC90E09093DF
:1013500007048093060484EC90E090930904809342
:10136000080480EC90E090930B0480930A0481ECD5
:1013700090E090930D0480930C0486EC90E09093A1
:101380000F0480930E0484E08093100483E0809324
:10139000110487E08093120485E08093130481E0B8
:1013A000809314040895CF92DF92EF92FF920F93EF
:1013B0001F93CF93DF937C016B018A01C0E0D0E0E3
:1013C0000FC0D6016D916D01D701ED91FC91019097
:1013D000F081E02DC7010995C80FD91F01501040B9
:1013E0000115110571F7CE01DF91CF911F910F917A
:1013F000FF90EF90DF90CF900895CF93DF930E94FE
:10140000620A0E945908C0E9D8E00E945A08209751
:10141000E1F30E949008F9CF1F920F920FB60F923E
:1014200011242F933F938F939F93AF93BF938091FA
:10143000190490911A04A0911B04B0911C043091DE
:101440001D040196A11DB11D232F2D5F2D3720F006
:101450002D570196A11DB11D20931D0480931904E1
:1014600090931A04A0931B04B0931C04809115045C
:1014700090911604A0911704B09118040196A11D33
:10148000B11D8093150490931604A0931704B09394
:101490001804BF91AF919F918F913F912F910F9021
:1014A0000FBE0F901F9018958FB7F89420911904D4
:1014B00030911A0440911B0450911C048FBFB90154
:1014C000CA010895789484B5826084BD84B5816032
:1014D00084BD85B5826085BD85B5816085BDEEE63C
:1014E000F0E0808181608083E1E8F0E0108280811B
:1014F00082608083808181608083E0E8F0E0808189
:1015000081608083E1EBF0E0808184608083E0EBA8
:10151000F0E0808181608083EAE7F0E08081846090
:1015200080838081826080838081816080838081EC
:10153000806880831092C1000895482F50E0CA014E
:1015400082559F4FFC012491CA0186569F4FFC0192
:1015500094914A575F4FFA013491332309F440C004
:10156000222351F1233071F0243028F42130A1F0EE
:10157000223011F514C02630B1F02730C1F02430EC
:10158000D9F404C0809180008F7703C080918000DF
:101590008F7D8093800010C084B58F7702C084B5A2
:1015A0008F7D84BD09C08091B0008F7703C080918A
:1015B000B0008F7D8093B000E32FF0E0EE0FFF1FAF
:1015C000EE58FF4FA591B4912FB7F894662321F4FC
:1015D0008C919095892302C08C91892B8C932FBF7D
:1015E0000895EE0FFF1F0590F491E02D0994F894F3
:0215F000FFCF2B
:1015F200FFFFFFFF00000000B405D3090000000058
:0C1602004A09D309DE080F09EF08380977
:00000001FF
